:10000000F8FF00201104000021340000213400001A
:10001000213400002134000021340000213400008C
:10002000213400002134000021340000213400007C
:10003000213400002134000021340000213400006C
:10004000213400002134000021340000213400005C
:10040000FFFFFFFFFFFFFFFFFFFFFFFFFEFFFFFFFD
:1004100062B603F02FFFFEE72DE9F04FA1B0824650
:1004200002AE002017461D46029170620DF144088D
:100430000AE017F8011B0298D0470290002800F04C
:10044000D482706A401C7062387808B9706ACEE253
:100450002528EED10020F06030617061B061F0615C
:10046000306201E040F0010017F8011F2029F9D0A7
:1004700023290DD02B2904D02D2906D030290AD0CC
:100480000CE040F0020080B2EEE740F00400FAE732
:1004900040F00800F7E740F01000F4E72A290DD1FA
:1004A00029680A1D2A600968F162002904D54942B9
:1004B00040F00400F16280B27F1C13E00021F16281
:1004C0000BE0F16A6FF00043994205D001EB810324
:1004D00002EB43013039F1627F1C3A78A2F130011E
:1004E0000A29EED339782E2903D04FF0FF31B162BB
:1004F0001EE017F8011F2A2906D129680A1D2A6063
:100500007F1C0968B16213E00021B1620BE0B16A9F
:100510006FF00043994205D001EB810302EB4301E8
:100520003039B1627F1C3A78A2F130010A29EED34A
:1005300030860FF6BC20397800F078FD08B117F846
:10054000010B8DF83A009DF83A00682802BF39780F
:100550006829622005D06C2804BF38786C2803D144
:1005600071208DF83A007F1C11A8B0603978B1F184
:10057000250023D02038022840F2B980133800F03B
:10058000E1800B3800F07781401E00F02081401E92
:10059000022840F2AC80001F00F01981401F7BD080
:1005A000401E00F0CF80401E22D0C01E0BD0801E07
:1005B00000F0C880C01E00F0C58064E1F068411CF6
:1005C000F160252169E12868011D29600068B26A8F
:1005D0007060002A02D500F035FD07E0002100F030
:1005E0004DFD00281ABF7168401AB06A306156E1AB
:1005F0002868011D296000210068CDE900014FF045
:100600003C0E11A87060DDE9000111B908B9B26AA9
:10061000CAB10206120FA0EB02123032AEF1010392
:10062000D2B29E463A2AA8BF2732000903F8082012
:1006300040EA0170090908BF002804D0726811ABB4
:1006400073449A42E5D311A971447160CEF13C0024
:10065000B16A3061884207DA081AB0614FF6EF716B
:10066000308E084030861AE1002940F1188196F852
:10067000301001F01401102940F01181F16AF26884
:10068000891AB269891AA1EB000EBEF1010FC0F2FE
:100690000681C6F818E002E19DF83A00622818D0F9
:1006A000682806D06A280BD06C2819D0712807D08A
:1006B00016E02868011D29600068716A0180EEE07B
:1006C0002A68101D28601268706AC117C2E900010B
:1006D000E5E02868011D29600068716A0170DEE0AC
:1006E0002868011D29600068716A0160D7E02868E8
:1006F000C01D20F00700286000F108022A60D0E940
:100700000023CDE90023002B04D5F068421CF260E1
:100710002D220DE0308E820704D5F068421CF26075
:100720002B2205E0C00705D5F068421CF2602022AC
:1007300000F80820F06811AA8018706000A800F086
:10074000E3F9ACE09DF83A006C2808BF2A6811D0A4
:10075000712808BF2A6802D02A686A280AD1D21DE7
:1007600022F007022A60144604F108022A60D4E944
:10077000002303E0131D2B6000231268CDE9002342
:10078000682808BF92B207D0622808BFD2B203D04F
:10079000742818BF7A2802D10023CDE9002396F8E7
:1007A000300000075FD5DDE90023002B08BF002AD9
:1007B00059D041F02000782855D1F068302200F857
:1007C0000820401C421CF26000F808104BE09DF825
:1007D0003A0062280CD0682810D06A281AD06C28F9
:1007E00023D0712816D074281FD07A280CD01CE092
:1007F0002868021D2A6090F900201AE02868021D6E
:100800002A60B0F9002014E02868021D2A60002345
:1008100002680FE02868C01D20F00700286000F182
:1008200008022A60D0E9002304E02868021D2A603B
:100830000268D317CDE90023002B04DAF068421CCC
:10084000F2602D220DE0308E820704D5F068421C44
:10085000F2602B2205E0C00705D5F068421CF2606B
:10086000202200F80820F06811AA8018706000A803
:1008700000F0C0F813E0F068411CF16029680A1D1F
:100880002A60096809E0F068421CF260252200F83D
:10089000082021B1F068421CF26000F80810F06AEC
:1008A000F168401AB169401A3169401AF169401A79
:1008B0007169401A316AA0EB010996F830007F1C7B
:1008C000400710D420208DF84000002409E00123C7
:1008D00010AA00A9504600F073FB002840F0858064
:1008E000641C4C45F3DBF4680DF1440B0AE01BF883
:1008F000011B0298D0470290002876D0706A401CF5
:100900007062641E002CF2D130208DF840004FF050
:10091000000BB46909E0012310AA00A9504600F0B9
:100920004FFB002861D10BF1010BA345F3DB3469C8
:10093000D6F804B00AE01BF8011B0298D0470290D9
:10094000002852D0706A401C7062641E002CF2D1E4
:1009500030208DF840004FF0000BF46909E00123CE
:1009600010AA00A9504600F02BFB00283DD10BF146
:10097000010BA345F3DB30697168746900EB010B6F
:1009800009E01BF8011B0298D047029068B3706A17
:10099000401C7062641E002CF3D130208DF84000A2
:1009A0004FF0000B346A08E0012310AA00A950465A
:1009B00000F006FBC8B90BF1010BA345F4DB96F878
:1009C000300040077FF540AD20208DF84000002426
:1009D00000E0641C4C45BFF637AD012310AA00A906
:1009E000504600F0EDFA0028F3D04FF0FF3021B070
:1009F000BDE8F08F2DE9FA47064682B035690A4610
:100A00006F2A08BF082705D041F02000782814BFBE
:100A10000A271027D6E900013C2480468946642A2B
:100A200018BF692A05D1002903DAD8F1000869EB5B
:100A30004909B9F1000F08BFB8F1000F0CD1306BB4
:100A400050B9082F3BD196F83800000737D5302031
:100A50003B2485F83B0032E0CDE90089FB17404696
:100A600049463A4600F036FBB846A8FB0023DDE9CC
:100A70000089A8EB02023032A4F1010AD2B2544636
:100A80003A2A03DB9DF80830513B9A180AF80520F2
:100A900080465FEA010908BFB8F1000F03D0F06893
:100AA00061198842D8D3082F09D196F83800000779
:100AB00005D5605D302802D0641E30206055C4F139
:100AC0003C00B0616119F160316B884207DA081AA5
:100AD00030624FF6EF71308F0840308710E0002908
:100AE0000ED596F8381001F01401102908D1716B59
:100AF0007269891A326A891A081A0128A8BF3062F5
:100B000004B0BDE8F08700002DE9F34F8BB0D0E9C9
:100B10000089006B01AF002802D50B98062106E082
:100B200004BF41F02000672802D10B980121016326
:100B30000B984168C1F30A5040F2FF72904220D1F5
:100B4000080302BF0B98006800280AD10B98032104
:100B500081619DF8300061381A2858D30FF2A44102
:100B600009E00B98032181619DF8300061381A2853
:100B70004AD30FF288410B98C068032200F022FB91
:100B800001E1012807DA0B9800F057FB012802DB8E
:100B900000230026EEE00B9A526840F2FE3161F32A
:100BA0001E520B994A6040F2FE31461A40464946B1
:100BB0000022002300F062FB38BF89F0004936B202
:100BC00047F2975070434A49DFF828B190FBF1F69D
:100BD00036B2C6F107079246012F1BDBF80707D58F
:100BE00052465B464046494600F060FB80468946D7
:100BF0007F105046594652465B4600F057FB8246EE
:100C00008B46002FEAD126E00FF2EC31B3E70FF26A
:100C1000F031B0E77F420024374D12E0F80707D5E6
:100C200052465B462046294600F040FB04460D46EE
:100C30007F105046594652465B4600F037FB8246CD
:100C40008B46002FEAD14046494622462B4600F00B
:100C5000FFFB804689469DF8300040F02005662D58
:100C60000CBF06F10A0006200B99096B4718142FD8
:100C7000A8BF132730208DF804000DF10504DFF81C
:100C80007CB0012F3CDB4046494600F005FD0146A3
:100C900004F1080204234FF00A0CB1FBFCFC0CEB3E
:100CA0008C04A1EB4401303102F8011D0A21BCFB88
:100CB000F1FE0EEB8E04ACEB44043034714602F8C6
:100CC000014D5B1EE7D1083F02F10804012FD8DB7C
:100CD00000F0F8FC02460B464046494600F000FD95
:100CE00000225B4600F0E2FA80468946CBE700BF6F
:100CF000A0860100000024400000F03F84D7974107
:100D00000DF10500201A0DF1050702E0401E761EC8
:100D10007F1C39783029F9D0662D02D136B2711C8A
:100D200003E0652D0CBF012100210B9A126B8B187B
:100D30001BB29842B8BF03461BB219001AD48142B5
:100D400004DAC85D3528A8BF392000DA3020CA1976
:100D5000521E00E05B1E12F80159491E8542F9D06F
:100D6000392802D1C85D401CC855002902D57F1E14
:100D70005B1C761C36B29DF830100B9800961BB2A7
:100D80003A4600F003F80DB0BDE8F08F2DE9F047CA
:100D900086B006468A4690461D4600F07EFD406AB3
:100DA000376B90F80090012D02DA01250FF25828D8
:100DB0004AF02000BDF93840662808BF641C13D0F3
:100DC000672840F0878014F1040F72DBBC4270DAB0
:100DD00096F83800641C000702D4BD42B8BF2F4605
:100DE00024B23F1B48BF0027F068B16924B2012C30
:100DF00021DA30234A1C0B54012F03DA96F83810FD
:100E0000090702D502F80090521CB261E742B8BF50
:100E10007C4224B26142E7197162AF42B8BF3D46DD
:100E20002DB2F5612A46B3694146181800F0CAF997
:100E3000781BB062ADE00818A54216DA2A46414692
:100E400000F0C0F9B1696918B161601B7062012FCF
:100E500003DA96F83800000705D5F06801F800902D
:100E6000F069401CF061B76293E02246414600F011
:100E7000A9F9B06920182D1B012F03DA96F8381054
:100E8000090703D5F16800F80190401C2DB2B0614C
:100E9000AF42B8BF3D46F3682DB22A4604EB0801C5
:100EA000C01800F08FF9B0692818B061781B706223
:100EB0006FE0BD4204DA96F83810090758BF2F4694
:100EC0007F1E48BF0027BAF1670F0CBF4FF0650ABD
:100ED0004FF0450AB169F06818F8013B0B544A1C01
:100EE000012F05DA96F83810090758BFB26115D5F9
:100EF00002F80090531CB361012F0FDB6D1E2DB261
:100F0000AF42B8BF3D462DB22A464146181800F000
:100F100059F9B0692818B061781B7062B069F1683E
:100F200000EB0108200008F801AB03D42B2008F8DF
:100F3000010B03E02D2108F8011B6442002502AFDC
:100F400008E00A2200A800F0C1FC019807F8010B94
:100F50006D1C009C21B20129F3DA022D06DA4AF059
:100F60002000652804BF302008F8010B4DB930205F
:100F700008F8010B07E06D1E02A8285C303008F865
:100F8000010B012DF7DAB069F1684018A8EB0000F9
:100F9000F06196F8380000F0140010280DD1706947
:100FA000B1690818716A0818F1690818B16A081857
:100FB000716B8842BCBF081A306206B0BDE8F0878A
:100FC000F8B504460D4616461F46002004E0E86AC0
:100FD000401CE8627F1E002047B116F8011BA8687C
:100FE000A047A8600028F2D14FF0FF30F2BD00000A
:100FF000686A6C747A4C00006E616E004E414E005F
:10100000696E6600494E4600300050F8041B61B11D
:1010100050F8042BD30744BFA9F101039A18002309
:1010200042F8043B091FFAD1EFE770470278C9B2D2
:101030008A421AB11CBF10F8012FF9E718BF00202F
:101040007047000000F10103810704D010F8011B74
:1010500089B18107FAD10268B2F10131914311F0EF
:10106000803F04BF50F8042FF6E710F8011B11B1C0
:1010700010F8011BFBE7C01A70470000C9B28307D4
:1010800006D0521E22D310F8013B9942F7D11FE03F
:10109000083A13D302F1040241EA012141EA014175
:1010A00050F8043B121F21BF4B40A3F1013C2CEA36
:1010B000030C1CF0803FF3D0C9B2001F083210F8B7
:1010C000013B521E28BF91EA030FF8D818BF012038
:1010D000401E70471B4213D1094236D12AB18446C3
:1010E000B0FBF2F002FB10C2704700F0F7BBFCD37C
:1010F0000022002370470B000200002100207047EF
:10110000904271EB030CF6D370B5B1FA81F4B3FAE7
:1011100083F52C1BA340C4F1200532FA05F63343B6
:10112000A2405FF00046E64002E05B085FEA320260
:10113000841A71EB030524BF204629467641F4D377
:1011400002000B003000002170BD012ACFD970B51C
:10115000140C20D0B1FA81F4B2FA82F5C4F1200463
:101160006419B4F12006D6D3B2405FF00044F440D5
:10117000002502E052085FEA3303C61A71EB020E43
:1011800024BF3046714664416D41F3D302000B0029
:101190002000290070BD0C46B1FBF2F102FB1145A5
:1011A0002D0445EA1045B5FBF2F402FB145580B25C
:1011B00040EA0545B5FBF2F002FB105240EA04405C
:1011C00070BD000062B38B0708D0521E11F8013BBE
:1011D00000F8013B00F024808B07F6D1830740F034
:1011E000208000BF103A07D330B4B1E83810103A6D
:1011F000A0E83810F9D230BC530724BFB1E808107A
:10120000A0E8081044BF51F8043B40F8043BD20763
:1012100024BF31F8022B20F8022B44BF0B78037057
:101220007047083A07D3B1E80810083A40F8043B81
:1012300040F804CBF7D25307E4E730B4436803F037
:10124000004201211B031B0B436004BF0368002BFA
:1012500008D10DE00368DD0F45EA440444605B00FB
:101260000360491E4468E302F4D523031B0B43606B
:1012700043681A434260084630BC70474FF4001C74
:101280001CEB410F94BF1CEB430F09E041EA030C38
:1012900050EA4C0C52EA0C0C03D2994208BF90421F
:1012A000704714BF8B42824270470000B0B581EA9C
:1012B000030C0CF0004C40F2FF7515EA11541DBFF1
:1012C00015EA1357AC42AF4239E0E41923EA45531B
:1012D00043F48013C90241F0004141EA505EC70265
:1012E0001100A7FB020200284FF00000EEFB0120D6
:1012F0004FF00001E3FB072118BF42F00102401844
:1013000000214941E3FB0E01A4F580640F0302D2E2
:1013100052004041494154F101046CDD470872F12B
:10132000004250F1000051EB0451A1F580115CBF67
:1013300041EA0C01B0BD4CEA05510020B0BD05EA00
:101340001357AC4214BFAF4241E050EA410E1CBFFC
:1013500052EA430E02E061460020B0BD24423C4404
:101360001BD15FEA070EF6D0090302BF0146002039
:10137000AEF1140EB1FA81F7AEEB070401FA07FEE5
:101380000C37C7F1200100FA07F7C8404EEA000EFB
:1013900023EA455343F48013A2E733F00043B3FA42
:1013A00083F704BFB2FA82FE77440B3FE41BB7F128
:1013B000200E2FBF02FA0EF3BB40C7F1200E22FA17
:1013C0000EFE38BF43EA0E03BA40641C82E750EABF
:1013D000410E14BF52EA430E6FF000014FF40017A4
:1013E00017EB430F8ABF194617EB410FB5E74CEADD
:1013F00005510020B0BDD4F10104B4F120070FDA8B
:10140000C4F12007520828BF42F0010210FA07F584
:1014100001FA07F7E1BF2A43E0403843E1400FE01B
:10142000352C98DCC7F1200452EA400220FA07F27A
:1014300018BF42F0010231FA07F0A1400A4300212F
:1014400072F1004250F1000051EB0C01B0BD000000
:10145000F0B540F2FF7581EA030C0CF0004C15EA80
:1014600011541DBF15EA1357AC42AF42E5E0BC4131
:10147000C1F31301C3F31303801A994143F480139A
:1014800004D2641E4000494180185941C90241EA12
:101490005051B1FBF3F603FB1611A2FB0675D7EB17
:1014A000C020A94102D2761E80185941C90241EAE2
:1014B0005051B1FBF3FE03FB1E11A2FB0E75D7EBDF
:1014C000C020A94103D2AEF1010E80185941890212
:1014D00041EA9051760546EA8E2EB1FBF3F603FB06
:1014E0001611A2FB0675D7EB8020A94102D2761E09
:1014F00080185941C90241EA50514EEA060EB1FB2B
:10150000F3F603FB1611A2FB0675D7EBC020A94129
:1015100002D2761E80185941C90241EA5051B1FBEE
:10152000F3F703FB1711A2FB0735D3EBC020A9414A
:1015300067F100070CBF004247F0010766F3D527AB
:101540004FEA1E31B80814F5806412DDBD0775F14D
:10155000004250EB0E5051EB045111F5801F5CBF5F
:1015600041EA0C01F0BD4CF07F6141F0E041002008
:10157000F0BDBD076D0840EA0E5041F48011D4F172
:101580000104B4F120060ADAC4F120060200E040AA
:1015900001FA06F3E1401843B24015430EE0342C43
:1015A00013DCC6F1200445EA40056D0820FA06F276
:1015B000154321FA06F0A1400D43002175F10042C8
:1015C00050F1000051EB0C01F0BD00205FEA0C016E
:1015D000F0BDCFB992185B41B3FA83F704BFB2FAFA
:1015E00082F6BF190B3FB7F120062FBF02FA06F3B0
:1015F000BB40C7F1200622FA06F638BF3343BA4093
:101600001CB1E419641E33E77F4231F00041B1FAA6
:1016100081F404BFB0FA80F6A4190B3CB4F12006A3
:101620002FBF00FA06F1A140C4F1200620FA06F609
:1016300038BF3143A0403C1B1AE7AC421ABF05EA51
:101640001357AF4212E050EA41061CBF52EA43066C
:10165000BFE750EA4107304661461CBF41EA0551E9
:10166000F0BD52EA430C08BFC143F0BD00204FF467
:10167000001616EB410F98BF16EB430F08BF16EB91
:10168000410F24BFC14305E016EB430F0CBF614679
:101690004CEA0551F0BD0000400D40EAC120490070
:1016A00080F00D8040F00040490DA1F58061491C9B
:1016B00005D4D1F11F0154BFC840C01770474FF087
:1016C00000007047010000BF09D0B0FA80F18840E7
:1016D000C91CC1F58461090501EBD02140057047A3
:1016E00070B44FF0004591EA030F44BF6B4000F027
:1016F000F7B800BF841A71EB030604D26E40001BDA
:10170000B141121973414FF4001C1CEB410F34BF5F
:101710007CEB430684E00C0DA4EB1356362E7DDCE7
:10172000012E43DC45EAC32343EA525312BFD202DF
:1017300092025B08240545EAC12141EA5051D2EBEF
:10174000C020994125D407D1B0FA80F610FA06F1ED
:1017500064D00020203608E0B1FA81F6B140C6F12D
:10176000200220FA02F21143B0404FEAF474B4EBC5
:10177000465434F001064FEA74040AD8D6F5001630
:10178000760D04F00044F04061FA06F25040F1405A
:101790004840C00A40EA415021F0004128BF5FEABA
:1017A000500550F1000044EBD12137E045EAC32356
:1017B000DB0A45EAC121C90AB6F120050EDD42EA7D
:1017C0000242120CC5F1200603FA06F6EB4042EA8B
:1017D00006056D42984161F100010DE062FA06F5DF
:1017E000F240554063FA06FC82EA0C02F3405A408C
:1017F0006D42904161EB030111F4801F05D1641E1D
:10180000620502D06D004041494121F48011430836
:1018100075F1004350F1000041EB045170BC70477A
:101820001CEB410F15D223F0004352EA43060BD0C4
:101830004FEA4C0CBCEB410F04D80C0D661E342E45
:10184000B7DDEBE7801A994150EA410608BF002155
:10185000E4E708BF1CEB430F28BF6FF00001DDE792
:1018600080B5134800F0A6F80FF24801016041600E
:101870008160C1600161416181610FF23C0242629D
:101880008162C162016341630FF2300282630FF231
:101890003402C2630164416401BD10B5044800F024
:1018A00089F80446206808B9FFF7DAFF204610BD22
:1018B000A80FFF1F000000002E00000066616C737F
:1018C00065000000747275650000000091FBF2F382
:1018D00003FB1211C0E9003170470000704700009F
:1018E000841A71EB030603D2001BB1411219734134
:1018F0004FF4001C1CEB410F34BF7CEB430443E06E
:101900000C0DA4EB1356352E50DC45EAC323DB0A3D
:1019100045EAC121C912B6F120050DDD63FA05F6CD
:10192000EB4086EA0305124218BF45F00105C018D6
:1019300051F100010CD213E062FA06F5F240554075
:10194000F3415A40B340F3405A408018594107D3FD
:1019500049085FEA30005FEA350528BF45F0010518
:1019600001F58011420875F1004250F1000041EB91
:10197000045170BC4FF4001C1CEB410F38BF704782
:101980000020090D090570471CEB410F10D252EAE7
:1019900043060BD0BCEB410F05D80C0DAB43661EC4
:1019A000342EB5DD02E0AB438018594170BC70475E
:1019B00070BC704770470000050005000A000A006F
:1019C0000A000A0014001E0000B0034000B00B40E3
:1019D0000000000000000000000000000000000007
:1019E00000000000000000000000000000004E6F3A
:1019F0006E4D61736B61626C65000000004861723E
:101A0000644661756C740000000000004D656D4D0A
:101A1000616E6167656D656E740000427573466145
:101A2000756C740000000000000055736167654626
:101A300061756C74000000000000000000000000F0
:101A40000000000000000000000000000000000096
:101A50000000000000000000000000000000000086
:101A60000000000000000000000000000000000076
:101A70000000000000535643616C6C000000000041
:101A80000000000044656275674D6F6E69746F7287
:101A90000000000000000000000000000000000046
:101AA000000050656E645356000000000000000006
:101AB000005379735469636B00000000000000005C
:101AC000444D4130000000000000000000000044D0
:101AD0004D41310000000000000000000000444DB6
:101AE00041320000000000000000000000444D41B1
:101AF000330000000000000000000000444D4134AD
:101B00000000000000000000000000444D413500CE
:101B100000000000000000000000444D41360000BD
:101B2000000000000000000000444D4137000000AC
:101B30000000000000000000444D4138000000009B
:101B400000000000000000444D413900000000008A
:101B5000000000000000444D413130000000000052
:101B60000000000000444D41313100000000000041
:101B700000000000444D4131320000000000000030
:101B8000000000444D41313300000000000000001F
:101B90000000444D4131340000000000000000000E
:101BA00000444D41313500000000000000000000FD
:101BB000444D415F4572726F720000000000004D9D
:101BC000434D0000000000000000000000004654EB
:101BD000464C00000000000000000000005265615B
:101BE000645F436F6C6C6973696F6E004C56445F41
:101BF0004C565700000000000000004C4C570000FD
:101C00000000000000000000000057617463686479
:101C10006F6700000000000000524E470000000007
:101C200000000000000000004932433000000000C6
:101C300000000000000000493243310000000000B5
:101C40000000000000005350493000000000000078
:101C50000000000000535049310000000000000067
:101C60000000000053504932000000000000000056
:101C700000000043414E305F4F525F4D425F62753E
:101C8000660043414E305F4275735F4F66660000E9
:101C90000043414E305F4572726F720000000000D9
:101CA00043414E305F54785F5761726E696E67438F
:101CB000414E305F52785F5761726E696E67434183
:101CC0004E305F57616B655F557000000052657361
:101CD00065727665643531000000000052657365F9
:101CE000727665643532000000000043414E315F7A
:101CF0004F525F4D425F6275660043414E315F4215
:101D000075735F4F666600000043414E315F457258
:101D1000726F72000000000043414E315F54785FE3
:101D20005761726E696E6743414E315F52785F57FB
:101D300061726E696E6743414E315F57616B655FDB
:101D40005570000000526573657276656435390020
:101D500000000000526573657276656436300000DD
:101D600000000055415254305F52585F54580000F3
:101D7000000055415254305F4552520000000000AF
:101D80000055415254315F52585F545800000000D2
:101D900055415254315F4552520000000000005539
:101DA000415254325F52585F545800000000554170
:101DB0005254325F4552520000000000005541521B
:101DC00054335F52585F545800000000554152543C
:101DD000335F455252000000000000554152543418
:101DE0005F52585F54580000000055415254345F10
:101DF00045525200000000000055415254355F52D8
:101E0000585F54580000000055415254355F455208
:101E10005200000000000041444330000000000078
:101E200000000000000041444331000000000000B9
:101E30000000000000434D50300000000000000092
:101E400000000000434D5031000000000000000081
:101E5000000000434D503200000000000000000070
:101E6000000046544D30000000000000000000005B
:101E70000046544D3100000000000000000000004A
:101E800046544D32000000000000000000000043F6
:101E90004D540000000000000000000000005254FB
:101EA00043000000000000000000000000526573C5
:101EB0006572766564383300000000005049543084
:101EC00000000000000000000000005049543100F4
:101ED00000000000000000000000504954320000E3
:101EE00000000000000000000050495433000000D2
:101EF00000000000000000005044423000000000DC
:101F000000000000000000555342300000000000B7
:101F1000000000000000555342444344000000000C
:101F20000000000000454E45545F313538385F549D
:101F3000696D6572454E45545F5472616E736D698B
:101F4000740000454E45545F5265636569766500CF
:101F50000000454E45545F4572726F7200000000EC
:101F60000049325330000000000000000000000073
:101F700053444843000000000000000000000044FB
:101F80004143300000000000000000000000444118
:101F900043310000000000000000000000545349DD
:101FA0003000000000000000000000004D4347002A
:101FB00000000000000000000000004C5054696D5B
:101FC00065720000000000000000526573657276C3
:101FD000656431303200000000504F52544100001F
:101FE0000000000000000000504F5254420000006A
:101FF00000000000000000504F5254430000000059
:10200000000000000000504F525444000000000047
:102010000000000000504F52544500000000000036
:1020200000000000526573657276656431303800D7
:1020300000000052657365727665643130390000C6
:1020400000005265736572766564313130000000BE
:1020500000526573657276656431313100000000AD
:10206000526573657276656431313200000000524A
:102070006573657276656431313300000000526526
:102080007365727665643131340000000052657307
:102090006572766564313135000000005265736504
:1020A00072766564313136000000005265736572E6
:1020B00076656431313700000000526573657276D1
:1020C00065643131380000000052657365727665D1
:1020D000643131390000000000800340009003406B
:1020E00000800B4000F00F4040F00F4080F00F40A8
:1020F000C0F00F4000F10F4001000000F0000A1D89
:102100003000180032001801600018186400181A16
:102110006E00181F780013187D00131A8200131C1C
:102120008C000E1296000E15A0000E18AA000E1BB1
:10213000B4000E1EC8000C1CE1000B1EFA000A1FA2
:10214000000109080090044000A0044000B00440D1
:1021500000C0044000D0044000A0064000B006408B
:1021600000C0064000D0064000A00E4000B00E4067
:10217000480040003800490046003E003700490052
:102180003A003900340049002D002D002800490094
:102190001C001C00190049006A6E6B6C676D4E4F85
:1021A0003435363702040101500FFF1FA00FFF1F07
:1021B000500FFF1F500FFF1F500FFF1F390CFF1F45
:1021C000200CFF1F000000000000000000000000C5
:1021D00000000000000000000000000000000000FF
:1021E00000000000DFF800F0A70CFF1FDFF800F090
:1021F000FF0CFF1FF0B59BB00020040024B2052C9B
:1022000046DA05220221092000F030FC24B208A998
:1022100021F81400052202212D2000F027FC24B211
:1022200008A911EB44014881052202212C2000F06D
:102230001DFC24B208A911EB440188820522022169
:10224000282000F013FC24B208A911EB4401C88334
:10225000052202210D2000F009FC24B208A911EB8F
:1022600044010885052202210C2000F0FFFB24B266
:1022700008A911EB44014886052202212A2000F01A
:10228000F5FB24B208A911EB44018887641CB5E76B
:102290000020040024B2072C44DA002005002DB2EF
:1022A000042D3DDA0020060036B22DB2D5F104002F
:1022B000864233DA36B20A2008A914FB001010EB6C
:1022C0004600B0F9020036B20A2108AA14FB012127
:1022D00031F9161088421FDA36B20A2008A914FB19
:1022E000001010EB4600B0F90200070036B20A20D9
:1022F00008A914FB001010EB460036B20A2108AA08
:1023000014FB012131F81610418036B20A2008A9C9
:1023100014FB001020F81670761CC5E76D1CBEE794
:10232000641CB7E70020040024B2072C21DA0A203D
:1023300008A914FB001040880A2108AA14FB0121F7
:10234000898808180A2108AA14FB0121C9880818DD
:1023500024B200A921F8140024B200A830F9140016
:10236000032190FBF1F024B204A921F81400641CAD
:10237000DAE70020040024B2072C5ADA24B2DFF88E
:102380001C0410EB8400406824B2DFF8101441F8FC
:10239000240024B2DFF8040410EB840024B2DFF838
:1023A000FC1311EB8401496A016224B2DFF8EC03EB
:1023B00010EB840024B2DFF8E41311EB8401496CC4
:1023C000016424B2DFF8D40310EB840024B2DFF8F8
:1023D000CC1311EB8401496E016624B2DFF8BC0313
:1023E00010EB840024B2DFF8B41311EB8401D1F8B0
:1023F0008410C0F8801024B2DFF8A00310EB840032
:1024000024B2DFF8981311EB8401D1F8A410C0F8BE
:10241000A01024B2DFF8840310EB840024B2DFF8AC
:102420007C1311EB8401D1F8C410C0F8C010641CF7
:10243000A1E70020040024B2072C0BDA24B2DFF855
:102440005C0310EB441024B204A931F91410C161EB
:10245000641CF0E70020040024B2082C80F289807C
:10246000DFF83C03006824B2DFF8301351F8241081
:1024700024B2DFF8302332F9142002FB0100DFF828
:1024800020130860DFF81803406824B2DFF80C134B
:1024900011EB8401096A24B2DFF8082332F9142011
:1024A00002FB0100DFF8F8124860DFF8F4028068F0
:1024B00024B2DFF8E81211EB8401096C24B2DFF8D2
:1024C000E42232F9142002FB0100DFF8D412886004
:1024D000DFF8CC02C06824B2DFF8C01211EB84012F
:1024E000096E24B2DFF8BC2232F9142002FB01008D
:1024F000DFF8AC12C860DFF8A802006924B2DFF888
:102500009C1211EB8401D1F8801024B2DFF89422E0
:1025100032F9142002FB0100DFF884120861DFF8B1
:102520008002406924B2DFF8741211EB8401D1F803
:10253000A01024B2DFF86C2232F9142002FB010053
:10254000DFF85C124861DFF85802806924B2DFF8D6
:102550004C1211EB8401D1F8C01024B2DFF84422F0
:1025600032F9142002FB0100DFF834128861641C88
:1025700072E70020040024B2072C12DA24B2DFF83C
:10258000200250F82400642190FBF1F024B282492B
:1025900041F8240024B28248002140F82410641C31
:1025A000E9E71BB0F0BD38B50021002000F0B7FA14
:1025B000482000F099FB002855D140F2F462002138
:1025C000022000F0FDFC79480068642101FB00F165
:1025D000032000F031FE0020734908817249C88051
:1025E00071498880704948806F4908800020040044
:1025F000A4B2B4F5FA6F22DAFFF7FCFD0020050063
:10260000ADB2052D13DAADB2674830F91500ADB2A1
:10261000614951F82510884207DAADB26248ADB27F
:102620005D4951F8251020F815106D1CE8E75F484A
:1026300000684100032000F0FFFD641CD8E7FC2087
:10264000FFF7D0FD00200400A4B2052C2ADAA4B2C2
:10265000554830F91420A4B2A10089B2FC20FFF73C
:10266000C5FD641CF0E700200400A4B2032C19DAB5
:1026700000200500ADB2052D0ADAADB24A48ADB270
:10268000A90011F5FC21096820F815106D1CF1E76F
:10269000464800680A2101FB00F1032000F0CCFD50
:1026A000641CE2E731BD38B50021012000F037FAA3
:1026B000492000F019FB00284BD140F68C22002164
:1026C000022000F07DFC39480068642101FB00F124
:1026D000032000F0B1FD00200400A4B2B4F5FA6FAD
:1026E00021DAFFF787FD05200500ADB2072D13DACB
:1026F000ADB22D4830F91500ADB2274951F825107B
:10270000884207DAADB22848ADB2234951F8251006
:1027100020F815106D1CE8E724480168032000F03C
:102720008BFD641CD9E7F820FFF75CFD0020040056
:10273000A4B2022C2DDAA4B21B4810EB4400B0F96D
:102740000A20A4B2A10089B2F820FFF74FFD641C53
:10275000EEE700200400A4B2032C1ADA00200500E2
:10276000ADB2022D0BDAADB20F4810EB4500ADB2A1
:10277000A90011F5F821096841816D1CF0E70B48AB
:1027800000680A2101FB00F1032000F055FD641CE4
:10279000E1E731BD00000000200EFF1F3C0EFF1FCF
:1027A0001C0FFF1F1004FF1F100EFF1F4C0FFF1FF9
:1027B00038B5040064B26511EDB2002D02D0012DD0
:1027C00017D02DE0DFF80803006850F00060DFF854
:1027D00000130860DFF8FC02006830F09000DFF8BA
:1027E000F4120860DFF8EC02DFF8E8120968016013
:1027F0001BE0DFF8E402006850F00060DFF8D81258
:102800000860DFF8D002006830F41040DFF8C4122E
:102810000860DFF8C002DFF8BC120968016004E05C
:102820003321DFF8B80200F078FD64B22000002800
:1028300000F08980012800F08680032800F0838062
:1028400008284ED0092851D00A2854D00B2857D038
:102850000C285AD00D285DD00E2860D00F2863D0E8
:10286000102870D0112864D0122867D013286AD09D
:10287000142868D01A2866D01D2864D01E2862D07B
:10288000202861D021285FD023285DD024285CD067
:1028900025285FD0262862D0272865D0282868D030
:1028A00029286BD02A286ED02B2871D02C2874D0E0
:1028B0002D2877D02E287AD02F287DD0302800F0F0
:1028C000858031287DD0322800F0808033287DD06B
:1028D00034287BD03A2879D03D2877D03E2875D04F
:1028E00075E00021202000F0CBFD74E000212120C4
:1028F00000F0C6FD6FE00021072000F0C1FD6AE096
:102900000021082000F0BCFD65E00021222000F03D
:10291000B7FD60E00021232000F0B2FD5BE0002164
:10292000402000F0ADFD56E00021412000F0A8FD60
:1029300051E00021982000F0A3FD4CE000219920F7
:1029400000F09EFD47E046E045E00021802000F0D9
:1029500097FD40E00021812000F092FD3BE0002146
:10296000822000F08DFD36E00021832000F088FDFC
:1029700031E00021202000F083FD2CE00021212007
:1029800000F07EFD27E00021242000F079FD22E008
:102990000021252000F074FD1DE00021262000F01C
:1029A0006FFD18E00021272000F06AFD13E00021F0
:1029B0002A2000F065FD0EE000212B2000F060FDD4
:1029C00009E00021112000F05BFD04E003E09A2102
:1029D000424800F0A2FC31BDF8B504000D0064B21D
:1029E00066110027290049B2200040B200F01CF80F
:1029F00076B23B4850F8260000680006F8D576B25B
:102A0000374850F826000069070076B2344850F87D
:102A10002600006830F0800076B2314951F8261067
:102A20000860380080B2F2BD30B440B2421110F0FC
:102A30001F0352B22A4C54F8224049B28D0015F0BF
:102A40000C0555F05005A56052B2254C54F82240B3
:102A50000425E56052B2224C54F82240DBB213F058
:102A60001F0555F04005256030BC70472DE9F04149
:102A700004000D001600002764B2082C02DB64B2CB
:102A8000132C0ADB64B2242C02DB64B2322C04DB8C
:102A900040F21B11114800F040FC002080465FFA14
:102AA00088F8F6B2B0450BD2290049B2200040B2F6
:102AB000FFF792FF17FA80F0070018F10108EEE720
:102AC000F6B2B7FBF6F7380080B2BDE8F08100003F
:102AD0003C80044018800440308004407C44000066
:102AE0002004FF1F10B5040064B2042C07DA012291
:102AF000012164B22548205C00F04AF80EE0042071
:102B000004002000441E40B2002807D00122012109
:102B100064B21E48205C00F03BF8F2E710BD38B507
:102B200004000D0064B2042C07DA2900C9B264B2B3
:102B30001648205C00F083F80EE00420040020001A
:102B4000441E40B2002807D02900C9B264B20F4821
:102B5000205C00F074F8F2E731BD10B5040064B2F7
:102B6000042C05DA64B20948205C00F0A1F80CE0FE
:102B7000042004002000441E40B2002805D064B2A6
:102B80000248205C00F094F8F4E710BDF80BFF1F3A
:102B900070B504000D0016004FF480712000C0B223
:102BA00000F06EFC6DB2002D11D1E4B260115D49F0
:102BB00051F82000E4B261115A4A52F821104969D3
:102BC000012214F01F039A409143416136E0E4B2C0
:102BD0006011544951F82000E4B26111514A52F891
:102BE00021104969012214F01F039A4011434161E9
:102BF000F6B2002E11D1E4B260114A4951F820001A
:102C00000068012114F01F0291408843E4B2611171
:102C1000444A52F82110086010E0E4B260114149C2
:102C200051F820000068012114F01F029140084370
:102C3000E4B261113B4A52F82110086070BD38B50A
:102C400004000D00E4B26011364951F820004069DB
:102C500014F01F01C840C00703D46321324800F0BC
:102C60005CFBEDB2002D11D1E4B260112D4951F899
:102C700020000068012114F01F0291408843E4B253
:102C80006111284A52F82110086010E0E4B2601186
:102C9000244951F820000068012114F01F029140DE
:102CA0000843E4B261111F4A52F82110086031BD97
:102CB00010B50400E4B260111A4951F820004069CF
:102CC00014F01F01C840C00703D47B21164800F050
:102CD00024FBE4B26011134951F82000012114F0E3
:102CE0001F029140C16010BD10B50400E4B2601134
:102CF0000C4951F82000406914F01F01C840C0077A
:102D000003D58C21084800F008FBE4B260110549A6
:102D100051F82000006914F01F01C84010F00100B4
:102D200010BD00003C0BFF1FC444000038B5040078
:102D30000D0064B2002C03D0022C66D049D380E091
:102D4000DFF87404006850F08070DFF86C140860DD
:102D50006DB2002D0BD0022D15D00ED3042D1ED038
:102D600017D3062D27D020D3072D2AD02FE04FF4DC
:102D70008061412000F084FB2AE04FF44071042080
:102D800000F07EFB24E04FF44071052000F078FB5A
:102D90001EE04FF44071062000F072FB18E04FF483
:102DA0004071072000F06CFB12E04FF48061652059
:102DB00000F066FB0CE04FF48061662000F060FBE1
:102DC00006E04FF48061672000F05AFB00E038E035
:102DD00037E0DFF8E403006850F00070DFF8D81344
:102DE00008606DB2002D02D0012D06D00BE04FF42B
:102DF00040710C2000F044FB06E04FF440710D20C0
:102E000000F03EFB00E01CE01BE0DFF8B0030068D0
:102E100050F08070DFF8A41308606DB2002D02D06E
:102E2000012D06D00BE04FF440710A2000F028FB82
:102E300006E04FF440710B2000F022FB00E000E0C0
:102E4000FFE731BD2DE9F84F04000D0016001F000B
:102E500064B2002C0ED064B2012C02D064B2022CF9
:102E600002D16DB2022D05DB4FF4C271DFF85003C1
:102E700000F053FA290049B2200040B2FFF756FF94
:102E8000DFF8400300684FF47A71484380465FEAF8
:102E90001840B0FBF6F08146002082461FFA89F9FF
:102EA00059FA0AF0012802DB1AF1010AF6E75FFA83
:102EB0008AFABAF1080F05DB40F29F11DFF8000330
:102EC00000F02BFA38FA0AF0B0FBF6F0814664B253
:102ED000002C03D0022C18D00CD322E01FFA89F961
:102EE00019F1010000FB07F042F21071B0FBF1F0A4
:102EF000834616E01FFA89F919F1010000FB07F07B
:102F00006421B0FBF1F083460BE01FFA89F919F157
:102F1000010000FB07F042F21071B0FBF1F08346B4
:102F2000FFE76DB264B2DFF8A00250F8240010EBA6
:102F3000C5006DB264B2DFF8901251F8241011EBA5
:102F4000C501C96831F00401C1606DB264B2DFF837
:102F5000780250F8240010EBC5002821C16064B24B
:102F6000DFF8640250F824005FFA8AFA1AF00701C9
:102F700051F00801016064B2DFF84C0250F82400FF
:102F80001FFA89F9C0F8089064B2DFF83C0250F8E3
:102F900024000021C1646DB264B2DFF82C0250F845
:102FA000240010EBC5001FFA8BFBC0F810B064B210
:102FB000DFF8140250F8240000214160BDE8F18FD1
:102FC0002DE9F04104000D0016005FF0000864B226
:102FD000002C0ED064B2012C02D064B2022C02D1BB
:102FE0006DB2022D05DB40F2E311DFF8D40100F0F1
:102FF00094F964B2002C03D0022C15D00BD31EE040
:1030000042F21170864205D340F2E911DFF8B001B7
:1030100000F083F913E0652E05D340F2ED11DFF8DF
:10302000A00100F07AF90AE042F21170864205D35D
:1030300040F2F111DFF8880100F06FF9FFE764B2A8
:10304000DFF8840150F8240080688046B8F1000F52
:10305000F5D064B2002C03D0022C14D00AD31CE0AB
:1030600018F1010000FB06F042F21071B0FBF1F024
:10307000070012E018F1010000FB06F06421B0FB2C
:10308000F1F0070009E018F1010000FB06F042F240
:103090001071B0FBF1F00700FFE76DB264B2DFF82A
:1030A000280150F8240010EBC5000761BDE8F0814D
:1030B00010B5040064B2012C07D064B2022C04D015
:1030C00040F2DA213E4800F028F964B220000128DD
:1030D00002D0022811D021E03748006850F000707B
:1030E000354908604FF4E0610C2000F0C9F94FF455
:1030F000E0610D2000F0C4F915E03048006850F0A0
:1031000080702E4908604FF4C0610A2000F0B8F9C1
:103110004FF4C0610B2000F0B3F904E040F212312B
:10312000274800F0FAF864B2274850F82400406DB0
:1031300050F0040064B2244951F82410486564B288
:10314000214850F82400D0F8800050F0080064B204
:103150001D4951F82410C1F8800064B21A4850F893
:1031600024000021C16464B2174850F824004FF6CF
:10317000FF71816064B2144850F82400D0F88000D8
:1031800050F0010064B2104951F82410C1F88000D9
:1031900064B20D4850F82400406D50F0010064B254
:1031A000094951F82410486564B2074850F82400D2
:1031B0000021416010BD00003C800440308004408C
:1031C000304400004C0FFF1F300BFF1F38B50400C8
:1031D0000D00002D03D12221434800F09EF8434802
:1031E000006850F400004149086041480021016036
:1031F00064B220013F496A1E425064B23D4810EB60
:103200000410C06850F0010064B23A4911EB041197
:10321000C86064B2374810EB041080684008400072
:1032200064B2344911EB0411886064B2314810EB88
:1032300004100321816031BD38B504000D00002D5C
:1032400003D14521284800F068F82848006850F468
:10325000000026490860264800688008800024494C
:10326000086064B2234810EB0410806840084000F6
:1032700064B2204911EB0411886064B220011D4939
:103280006A1E425064B21B4810EB0410C06850F034
:10329000010064B2174911EB0411C86064B215480B
:1032A00010EB041080684008400064B2114911EB33
:1032B0000411886064B20F4810EB04100121816092
:1032C00064B20C4810EB0410C068C007F8D564B2B3
:1032D000084810EB0410C06850F0010064B20549C2
:1032E00011EB0411C86031BD0C4500003C80044066
:1032F0000070034000710340DFF800F06D0CFF1F09
:10330000BFF34F8F5548006810F4E06054490843FC
:1033100052490860BFF34F8FFEE738B504000D0037
:103320000020FFF7DFFB2A0021004E4800F000F9E3
:103330000020FFF712FC4C4800684FF47A7101FB43
:1033400000F10320FFF778FFEDE738B504000D002A
:10335000210049B2042000F009FA200032BD10B566
:103360000024042000F01CFA042000F04FFA00288A
:1033700055D10020FFF7B6FB042000F047FA0128E2
:1033800001D1012004000020FFF7E7FB374800F0DF
:10339000CFF8354800684FF4FA7101FB00F10320C3
:1033A000FFF74AFFE4B2012CE6D1042000F02EFA28
:1033B0000028E1D1042000F029FA00280BD10020D8
:1033C000FFF7CBFB28480068642101FB00F10320D4
:1033D000FFF732FFEEE7042000F018FA01280BD1C6
:1033E0000020FFF7BAFB20480068322101FB00F102
:1033F0000320FFF721FFEEE71D4800F099F8FFF7E3
:103400007BFF19480068642101FB00F10320FFF7EE
:1034100013FF0020FEF7E6FEFFF772FFACE710BDDA
:1034200010B5144804680120FFF75CFB0120FFF78A
:1034300094FBE4B20F20104900FB0412E4B2210017
:103440000E4800F075F8084800684FF47A7101FBE7
:1034500000F10320FFF7F0FEE8E700000CED00E0CC
:103460000400FA05444600004C0FFF1FF846000018
:103470007846000004ED00E02804FF1FE04500004E
:1034800010B4294A12684FF40073C0B24409A34033
:103490001A43254B1A60C0B24211244B53F8222024
:1034A000012310F01F04A340C2F8A030C0B210F0F6
:1034B0001F02C0B243111D4C54F8233043F82210B0
:1034C00010BC704710B4184A12684FF40073C0B2B1
:1034D0004409A3401A43144B1A60C0B24211134B63
:1034E00053F82220012310F01F04A340C2F8A0309B
:1034F00031F4E061C0B210F01F02C0B243110B4CB6
:1035000054F8233053F8222012F4E0621143C0B281
:1035100010F01F02C0B24311044C54F8233043F89A
:10352000221010BC70470000388004409C0BFF1F25
:103530000EB400B582B003A90091024600AB012190
:10354000034878440A30FCF767FF06BC5DF810FBBF
:10355000851100002DE9F84304000D0064B2002C31
:1035600008D0022C2CD018D3042C4FD03BD3052CE0
:103570005FD071E0DFF81002006850F48060DFF87F
:10358000081208604FF440716620FFF779FF4FF48E
:1035900040716720FFF774FF5EE0DFF8EC01006820
:1035A00050F40060DFF8E01108604FF440714320F0
:1035B000FFF766FF4FF440714420FFF761FF4BE0D7
:1035C000DFF8C401006850F48050DFF8BC110860D7
:1035D0004FF440716320FFF753FF4FF440716220B6
:1035E000FFF74EFF38E0DFF8A001006850F400500C
:1035F000DFF8941108604FF440715020FFF740FF4E
:103600004FF440715120FFF73BFF25E0DFF87C01CC
:10361000006850F48060DFF8741108604FF4407166
:103620004E20FFF72DFF4FF440714F20FFF728FF8A
:1036300012E0DFF85801006850F40060DFF84C1128
:1036400008604FF440718920FFF71AFF4FF4407172
:103650008820FFF715FFFFE764B2DFF8340150F868
:103660002400C07810F0F30064B2DFF8241151F8A0
:103670002410C87064B2DFF8180150F8240064B256
:10368000DFF80C1151F824108978817064B2002C95
:1036900002D064B2012C07D1DFF8F80000684FF4C3
:1036A0007A714843814606E0DFF8EC0000684FF489
:1036B0007A71484381462801B9FBF0F00600B6B2A2
:1036C000B6F5005F02DB41F6FF700600B9FBF5F0CE
:1036D000B6B2B0EB06100700BFB2202F03DBDC212F
:1036E0002E48FFF71AFE64B2294850F824000078EB
:1036F00010F0E0008046B6B2300A10F01F0050EA29
:10370000080064B2224951F82410087064B22048BD
:1037100050F82400467064B21D4850F82400807AA6
:1037200010F0E000804664B2194850F8240017F009
:103730001F0151EA0801817264B2154850F8240053
:10374000007C50F0880064B2114951F824100874CC
:1037500064B20F4850F82400C07850F00C0064B2F6
:103760000B4951F82410C870BDE8F18340B2084AF3
:1037700052F8202012791206F8D540B2044A52F8C5
:103780002020D1717047000034800440288004401C
:10379000B00BFF1F440FFF1F4C0FFF1F54450000CD
:1037A00010B5040064B2082C0DDA0022002164B2C6
:1037B0002348205CFFF7ECF9032164B22048205C29
:1037C000FFF780FE14E0082004002000441E40B2F1
:1037D00000280DD00022002164B21948205CFFF7B8
:1037E000D7F9032164B21648205CFFF76BFEECE7C3
:1037F00010BD10B5040064B21148205CFFF774FAE4
:10380000002801D1002000E0012010BD10B5040007
:10381000200040B2FFF7EDFF00280FD109480068F3
:103820000A2101FB00F10320FFF706FD200040B252
:10383000FFF7DFFF002801D1002000E0012010BDCC
:10384000F00BFF1F4C0FFF1FDFF800F0C10DFF1F33
:1038500040B2DFF8941331F8201040B20128C0F2D2
:10386000698140B2112880F26581DFF8802300234E
:10387000137089B2312904DADFF870230023537002
:1038800076E089B2612904DADFF8602301235370FE
:103890006EE089B2912904DADFF8502302235370D5
:1038A00066E089B2C12904DADFF8402303235370AC
:1038B0005EE089B2F12904DADFF830230423537083
:1038C00056E089B2B1F5907F04DCDFF820230523B0
:1038D00053704DE089B2B1F5A87F04DCDFF80C230A
:1038E0000623537044E089B2B1F5C07F04DCDFF8F1
:1038F000FC22072353703BE089B2B1F5D87F04DC8A
:10390000DFF8E8220823537032E089B2B1F5F07F86
:1039100003DCB64A092353702AE089B2B1F5047F6B
:1039200003DCB24A0A23537022E089B2B1F5107F5A
:1039300003DCAE4A0B2353701AE089B2B1F51C7F49
:1039400003DCAA4A0C23537012E089B2B1F5287F38
:1039500003DCA64A0D2353700AE089B2B1F5347F27
:1039600003DCA24A0E23537002E0A04A0F235370D7
:1039700089B21A2903DA9D4A0023937069E089B25B
:10398000332903DA994A0123937062E089B24C2902
:1039900003DA964A022393705BE089B2652903DA61
:1039A000924A0323937054E089B27E2903DA8F4A46
:1039B000042393704DE089B2972903DA8B4A0523DB
:1039C000937046E089B2B02903DA884A06239370DF
:1039D0003FE089B2C92903DA844A0723937038E0AB
:1039E00089B2E22903DA814A0823937031E089B26F
:1039F000FB2903DA7D4A092393702AE089B2B1F5E5
:103A00008A7F03DA794A0A23937022E089B2B1F5FA
:103A1000967F03DC754A0B2393701AE089B2B1F5E7
:103A2000A37F03DA714A0C23937012E089B2B1F5D7
:103A3000AF7F03DC6D4A0D2393700AE089B2B1F5C4
:103A4000BC7F03DA694A0E23937002E0674A0F23B2
:103A5000937089B21A2903DA644A0023D37069E0AB
:103A600089B2332903DA614A0123D37062E089B253
:103A70004C2903DA5D4A0223D3705BE089B26529E1
:103A800003DA5A4A0323D37054E089B27E2903DA59
:103A9000564A0423D3704DE089B2972903DA534A7A
:103AA0000523D37046E089B2B02903DA4F4A0623D2
:103AB000D3703FE089B2C92903DA4C4A0723D37097
:103AC00038E089B2E22903DA484A0823D37031E0AA
:103AD00089B2FB2903DA454A0923D3702AE089B267
:103AE000B1F58A7F03DA414A0A23D37022E089B212
:103AF000B1F5967F03DC3D4A0B23D3701AE089B2FF
:103B0000B1F5A37F03DA394A0C23D37012E089B2EE
:103B1000B1F5AF7F03DC354A0D23D3700AE089B2DB
:103B2000B1F5BC7F03DA314A0E23D37002E02F4A8D
:103B30000F23D370704710B50400200040B2FFF788
:103B400087FE2B48007810F0FD00294908702848AE
:103B5000007850F01000264908702648B8210170FE
:103B600025480078C006FBD423480078C0F38100C4
:103B7000C0B20228F8D11D48C3781C4882781B487F
:103B800041781A480078FFF75FFE64B2164810EBE0
:103B90008400807810F01F001849087064B2124841
:103BA00010EB8400C07810F01F0050F04000144962
:103BB0000870114800788006FBD50F480078400651
:103BC000FBD50C48007810F03F000A4908700A48FD
:103BD0000078C0F38100C0B20328F8D164B2024873
:103BE00030F82400C0B210BD540BFF1F980BFF1F0C
:103BF00001400640004006400640064004400640A2
:103C00000540064080B500F01DF800F074F900F0A2
:103C10009FF901210120FEF782FF01210020FEF71C
:103C20007EFF774800684FF4FA6101FB00F1032042
:103C3000FFF702FB62B642F2107200210220FFF78A
:103C4000BFF9F8E780B572B6002201216F20FEF7B8
:103C50009FFF002201211320FEF79AFF0420FEF7A8
:103C600041FF0820FEF7A4FD0920FEF7A1FD0C206E
:103C7000FEF79EFD0D20FEF79BFD2A20FEF798FD26
:103C80002B20FEF795FD2C20FEF792FD012200214E
:103C90004820FEF77DFF03214820FFF713FC012297
:103CA00000214920FEF774FF03214920FFF70AFC99
:103CB000012200214A20FEF76BFF03214A20FFF773
:103CC00001FC012200214B20FEF762FF03214B2063
:103CD000FFF7F8FB012200214C20FEF759FF0321DA
:103CE0004C20FFF7EFFB012200214D20FEF750FF93
:103CF00003214D20FFF7E6FB012200214E20FEF7B5
:103D000047FF03214E20FFF7DDFB012200214F205A
:103D1000FEF73EFF03214F20FFF7D4FB40F68C2334
:103D200049F2704200210220FFF78CF8002342F292
:103D3000107203210020FFF785F8002342F2107271
:103D400004210020FFF77EF8002201216F20FEF7FA
:103D50001FFF002201211320FEF71AFF0120FFF7A9
:103D6000A7F9FFF7C9FA2648006841F288314843AD
:103D70004FF47A7190FBF1F10020FFF727FA00224F
:103D800000214120FEF704FF1E494120FFF778FB88
:103D9000002200214220FEF7FBFE1A494220FFF7D5
:103DA0006FFB002200216520FEF7F2FE1549652019
:103DB000FFF766FB1248006848F63A7148434FF433
:103DC0007A7190FBF1F10120FFF700FA0C480068CE
:103DD000322101FB00F10320FFF72EFA00F0C4F8B6
:103DE000FEF7E1FBFEF75FFC012201216F20FEF7E9
:103DF000CFFE012201211320FEF7CAFE01BD000003
:103E00004C0FFF1F03010B0010B440B24109414A9F
:103E1000012310F01F04A34042F8213010BC70476A
:103E20003D48006850F001003B4908603B4800688D
:103E3000401C3A490860704738B500243848056886
:103E400037485FF0FF3101600520040035FA04F0C7
:103E5000C00735D56520FEF747FF012810D131484E
:103E60000068400840002F4908602F485FF0FF318C
:103E700001602C48006850F001002A4908601FE0EA
:103E80005FF0FF3029490968401AFDF71BFC284AFA
:103E9000284BFDF7DDFAFDF7FFFB274908602648B0
:103EA00000684FF4AA7148434FF47A71B0FBF1F007
:103EB000224908601B480068400840001949086012
:103EC00031BD80B54120FEF70FFF002804D042200D
:103ED000FEF70AFF00280DD11048006840F6B831FF
:103EE000884207DB164800210160002203210020E0
:103EF000FFF766F801BD80B51249542000F0B9F80B
:103F000011496A2000F0B5F81049692000F0B1F8B5
:103F100001BD000000E100E00C710340380FFF1FFD
:103F2000A0C0044018710340107103401471034095
:103F30004B044755555542403C0FFF1F400FFF1F94
:103F4000500BFF1F213E0000393E0000C33E000021
:103F500080B54420FFF758FF5A20FFF755FF59203E
:103F6000FFF752FF01BD000080B54A20FEF7BCFEFE
:103F7000002810D1314832490988018030484088F2
:103F8000304908802E4880882F4908802C48C088F6
:103F90002E49088051E04B20FEF7A6FE002810D1E4
:103FA00027480089254908802548408925490880F7
:103FB00023488089244908802148C08923490880F2
:103FC0003BE04C20FEF790FE002810D11C48008AF0
:103FD0001A4908801A48408A1A4908801848808A75
:103FE000194908801648C08A1849088025E04D20E4
:103FF000FEF77AFE002810D11148008B0F49088087
:104000000F48408B0F4908800D48808B0E4908806F
:104010000B48C08B0D4908800FE00948008C074908
:1040200008800748408C074908800548808C06496D
:1040300008800348C08C0549088001BDA60FFF1FFA
:10404000C80BFF1FA00FFF1FA20FFF1FA40FFF1F12
:1040500010B504004FF4007094FBF0F101FB104127
:10406000002903D01E210B48FFF757F90A480460C6
:1040700010BD38B504000D000748006807498842A4
:1040800003D030210348FFF748F964B2034840F8F1
:10409000245031BD9C45000008ED00E00000FF1FEA
:1040A000DFF800F039320000DFF800F01B330000C9
:1040B0004F48F02101704E4800780006FBD54C486F
:1040C00000787121084201D0002000E001207047F3
:1040D00080B54848006850F40020464908604648CA
:1040E000006850F400204449086041480078000608
:1040F000FBD53F48F0210170404800680A2101FBD0
:1041000000F10320FFF7CCFF01BD10B582B0040021
:10411000A4B24FF4006000FB04F00090384809217D
:1041200001709DF80200374908709DF8010036497A
:10413000087036489DF800100170FFF7B9FF00289D
:1041400001D100200CE0A4B2002C08D17FF00102C4
:1041500040F20C41200080B200F003F800E00120A2
:1041600016BD7CB504000D001600A4B24FF400602B
:10417000ADB200FB04500190ADB2042095FBF0F10C
:1041800001FB1051002903D0EA212148FFF78CFFE1
:10419000ADB2B5F5006F03DDEC211D48FFF784FFDC
:1041A0009DF80600174908709DF80500164908702B
:1041B00016489DF80410017000969DF803001549FB
:1041C00008709DF80200144908709DF80100134919
:1041D000087013489DF8001001700948062101700D
:1041E000FFF766FF002801D1002000E0012076BD26
:1041F0000000024004F0014008F001404C0FFF1F96
:104200000700024006000240050002400400024090
:10421000E44300000B0002400A0002400900024093
:1042200008000240F0B4114E366834000F4E366874
:1042300056F47F060D4F3E600E0616F0706656EA85
:104240000076170517F470073E431F0417F4702714
:104250003E43074F3E6000263500EDB29D4201D23D
:104260006D1CFAE7014E3460F0BC704700F001406D
:104270004480044080B500F095F800F02AF800F082
:104280000AF8FFF76CF8012201210420FEF780FCF8
:10429000FFF7B8FCFEE780B50320FFF74CFC33497D
:1042A0000860324800684FF47A714843304908602A
:1042B0002F4800682F490968C1F30361491CB0FB0E
:1042C000F1F02D4908605FF4E1310420FFF742F975
:1042D00001BD2DE9F8432948294988420DD0002025
:1042E0008046B8F5826F08D22448254951F8281035
:1042F00040F8281018F10108F3E72048FFF7A8FE5E
:10430000204807002048060020480400A01B8046E3
:104310004046B0F10108002804D030783870761C8F
:104320007F1CF5E71A4881461A480500B5EB0900DD
:1043300080464046B0F10108002805D0002089F8E9
:10434000000019F10109F4E713481449144A531AFB
:1043500098464346B3F10108002B04D00B78037054
:10436000491C401CF5E7BDE8F1830000480FFF1F22
:10437000440FFF1F448004404C0FFF1F0000FF1F2D
:10438000000000001004FF1FB8190000E421000025
:10439000100EFF1FA80FFF1F3C0CFF1FA0400000C6
:1043A0007442000080B500F008F80C4800884FF611
:1043B000FE7108400949088001BDEFF3118072B613
:1043C00007494CF220520A8005494DF628120A800E
:1043D000C0B2002800D162B670470000002005403E
:1043E0000E200540433A5C55736572735C41646D01
:1043F000696E6973747261746F722E5344574D2DD8
:1044000032303134303430364C435C4465736B7435
:104410006F705C4144435C436869705C7372635CB9
:104420004D4B36305F666C6173682E630000000090
:10443000433A5C55736572735C41646D696E697370
:10444000747261746F722E5344574D2D3230313473
:10445000303430364C435C4465736B746F705C432E
:104460006172325C4144435C436869705C7372639F
:104470005C4D4B36305F66746D2E6300433A5C557D
:10448000736572735C41646D696E69737472617493
:104490006F722E5344574D2D323031343034303614
:1044A0004C435C4465736B746F705C4144435C4384
:1044B0006869705C7372635C4D4B36305F61646336
:1044C0002E630000433A5C55736572735C41646D02
:1044D000696E6973747261746F722E5344574D2DF7
:1044E00032303134303430364C435C4465736B7455
:1044F0006F705C4144435C436869705C7372635CD9
:104500004D4B36305F6770696F2E6300433A5C55E0
:10451000736572735C41646D696E69737472617402
:104520006F722E5344574D2D323031343034303683
:104530004C435C4465736B746F705C4144435C43F3
:104540006869705C7372635C4D4B36305F504954E0
:104550002E630000433A5C55736572735C41646D71
:10456000696E6973747261746F722E5344574D2D66
:1045700032303134303430364C435C4465736B74C4
:104580006F705C4144435C436869705C7372635C48
:104590004D4B36305F756172742E6300433A5C5543
:1045A000736572735C41646D696E69737472617472
:1045B0006F722E5344574D2D3230313430343036F3
:1045C0004C435C4465736B746F705C4144435C4363
:1045D0006869705C7372635C6D6973632E6300005D
:1045E0000A2A2A2A2A64656661756C745F69737287
:1045F00020656E7465726564206F6E2076656374E5
:104600006F722025642A2A2A2A2A0A0A2573204939
:104610006E746572727570740000000010B5074901
:1046200079441831064C7C44163404E00A68081DAD
:10463000511888470146A142F8D110BD2C00000056
:1046400038000000417373657274696F6E20666193
:10465000696C656420696E202573206174206C6923
:104660006E652025640A0000A3C9FFFF98010000C1
:10467000100EFF1F000000000ABDF8D0D0BDE2CB35
:10468000F8B2D9D7F7A3ACC7EBD6D8D0C2CBA2C863
:10469000EBB9CCBCFE00000000F00BF8002801D004
:1046A000FFF7BCFF0020C046C046FFF7ABFA00F0A2
:1046B00002F80120704700F001B8000007463846B4
:1046C00000F002F8FBE7000001491820ABBEFBE751
:1046D0002600020038B504460D46284600F006F8CC
:1046E000A84218BF0024204632BD00000149FEF751
:1046F0002CBE00BFFC0BFF1F0ABDF8C8EBCBC0D11E
:10470000ADBBB7B5C8B4FDA3A1000000C046C0460C
:10471000C046C046FFF7C0FF0000000000000000D8
:104720000000000000000000000000000000000089
:1047300000000000FFFFFFFFFFFFFFFF0000000081
:104740000000000000000000000000000000000069
:104750000000000000000000000000000000000059
:10476000FFFFFFFFFFFF000000000000000000004F
:104770000000000000000000000000000000000039
:104780000000000000000000000000000000000029
:104790000000000000000000000000000000000019
:040000050000470DA3
:00000001FF
