:10000000F8FF002011040000412A0000412A0000EE
:10001000412A0000412A0000412A0000412A000034
:10002000412A0000412A0000412A0000412A000024
:10003000412A0000412A0000412A0000412A000014
:10004000412A0000412A0000412A0000412A000004
:10040000FFFFFFFFFFFFFFFFFFFFFFFFFEFFFFFFFD
:1004100062B604F03FFAFEE72DE9F04FA1B0824644
:1004200002AE002017461D46029170620DF144088D
:100430000AE017F8011B0298D0470290002800F04C
:10044000D482706A401C7062387808B9706ACEE253
:100450002528EED10020F06030617061B061F0615C
:10046000306201E040F0010017F8011F2029F9D0A7
:1004700023290DD02B2904D02D2906D030290AD0CC
:100480000CE040F0020080B2EEE740F00400FAE732
:1004900040F00800F7E740F01000F4E72A290DD1FA
:1004A00029680A1D2A600968F162002904D54942B9
:1004B00040F00400F16280B27F1C13E00021F16281
:1004C0000BE0F16A6FF00043994205D001EB810324
:1004D00002EB43013039F1627F1C3A78A2F130011E
:1004E0000A29EED339782E2903D04FF0FF31B162BB
:1004F0001EE017F8011F2A2906D129680A1D2A6063
:100500007F1C0968B16213E00021B1620BE0B16A9F
:100510006FF00043994205D001EB810302EB4301E8
:100520003039B1627F1C3A78A2F130010A29EED34A
:1005300030860FF6BC20397800F078FD08B117F846
:10054000010B8DF83A009DF83A00682802BF39780F
:100550006829622005D06C2804BF38786C2803D144
:1005600071208DF83A007F1C11A8B0603978B1F184
:10057000250023D02038022840F2B980133800F03B
:10058000E1800B3800F07781401E00F02081401E92
:10059000022840F2AC80001F00F01981401F7BD080
:1005A000401E00F0CF80401E22D0C01E0BD0801E07
:1005B00000F0C880C01E00F0C58064E1F068411CF6
:1005C000F160252169E12868011D29600068B26A8F
:1005D0007060002A02D500F039FD07E0002100F02C
:1005E00051FD00281ABF7168401AB06A306156E1A7
:1005F0002868011D296000210068CDE900014FF045
:100600003C0E11A87060DDE9000111B908B9B26AA9
:10061000CAB10206120FA0EB02123032AEF1010392
:10062000D2B29E463A2AA8BF2732000903F8082012
:1006300040EA0170090908BF002804D0726811ABB4
:1006400073449A42E5D311A971447160CEF13C0024
:10065000B16A3061884207DA081AB0614FF6EF716B
:10066000308E084030861AE1002940F1188196F852
:10067000301001F01401102940F01181F16AF26884
:10068000891AB269891AA1EB000EBEF1010FC0F2FE
:100690000681C6F818E002E19DF83A00622818D0F9
:1006A000682806D06A280BD06C2819D0712807D08A
:1006B00016E02868011D29600068716A0180EEE07B
:1006C0002A68101D28601268706AC117C2E900010B
:1006D000E5E02868011D29600068716A0170DEE0AC
:1006E0002868011D29600068716A0160D7E02868E8
:1006F000C01D20F00700286000F108022A60D0E940
:100700000023CDE90023002B04D5F068421CF260E1
:100710002D220DE0308E820704D5F068421CF26075
:100720002B2205E0C00705D5F068421CF2602022AC
:1007300000F80820F06811AA8018706000A800F086
:10074000E3F9ACE09DF83A006C2808BF2A6811D0A4
:10075000712808BF2A6802D02A686A280AD1D21DE7
:1007600022F007022A60144604F108022A60D4E944
:10077000002303E0131D2B6000231268CDE9002342
:10078000682808BF92B207D0622808BFD2B203D04F
:10079000742818BF7A2802D10023CDE9002396F8E7
:1007A000300000075FD5DDE90023002B08BF002AD9
:1007B00059D041F02000782855D1F068302200F857
:1007C0000820401C421CF26000F808104BE09DF825
:1007D0003A0062280CD0682810D06A281AD06C28F9
:1007E00023D0712816D074281FD07A280CD01CE092
:1007F0002868021D2A6090F900201AE02868021D6E
:100800002A60B0F9002014E02868021D2A60002345
:1008100002680FE02868C01D20F00700286000F182
:1008200008022A60D0E9002304E02868021D2A603B
:100830000268D317CDE90023002B04DAF068421CCC
:10084000F2602D220DE0308E820704D5F068421C44
:10085000F2602B2205E0C00705D5F068421CF2606B
:10086000202200F80820F06811AA8018706000A803
:1008700000F0C0F813E0F068411CF16029680A1D1F
:100880002A60096809E0F068421CF260252200F83D
:10089000082021B1F068421CF26000F80810F06AEC
:1008A000F168401AB169401A3169401AF169401A79
:1008B0007169401A316AA0EB010996F830007F1C7B
:1008C000400710D420208DF84000002409E00123C7
:1008D00010AA00A9504600F073FB002840F0858064
:1008E000641C4C45F3DBF4680DF1440B0AE01BF883
:1008F000011B0298D0470290002876D0706A401CF5
:100900007062641E002CF2D130208DF840004FF050
:10091000000BB46909E0012310AA00A9504600F0B9
:100920004FFB002861D10BF1010BA345F3DB3469C8
:10093000D6F804B00AE01BF8011B0298D0470290D9
:10094000002852D0706A401C7062641E002CF2D1E4
:1009500030208DF840004FF0000BF46909E00123CE
:1009600010AA00A9504600F02BFB00283DD10BF146
:10097000010BA345F3DB30697168746900EB010B6F
:1009800009E01BF8011B0298D047029068B3706A17
:10099000401C7062641E002CF3D130208DF84000A2
:1009A0004FF0000B346A08E0012310AA00A950465A
:1009B00000F006FBC8B90BF1010BA345F4DB96F878
:1009C000300040077FF540AD20208DF84000002426
:1009D00000E0641C4C45BFF637AD012310AA00A906
:1009E000504600F0EDFA0028F3D04FF0FF3021B070
:1009F000BDE8F08F2DE9FA47064682B035690A4610
:100A00006F2A08BF082705D041F02000782814BFBE
:100A10000A271027D6E900013C2480468946642A2B
:100A200018BF692A05D1002903DAD8F1000869EB5B
:100A30004909B9F1000F08BFB8F1000F0CD1306BB4
:100A400050B9082F3BD196F83800000737D5302031
:100A50003B2485F83B0032E0CDE90089FB17404696
:100A600049463A4600F03AFBB846A8FB0023DDE9C8
:100A70000089A8EB02023032A4F1010AD2B2544636
:100A80003A2A03DB9DF80830513B9A180AF80520F2
:100A900080465FEA010908BFB8F1000F03D0F06893
:100AA00061198842D8D3082F09D196F83800000779
:100AB00005D5605D302802D0641E30206055C4F139
:100AC0003C00B0616119F160316B884207DA081AA5
:100AD00030624FF6EF71308F0840308710E0002908
:100AE0000ED596F8381001F01401102908D1716B59
:100AF0007269891A326A891A081A0128A8BF3062F5
:100B000004B0BDE8F08700002DE9F34F8BB0D0E9C9
:100B10000089006B01AF002802D50B98062106E082
:100B200004BF41F02000672802D10B980121016326
:100B30000B984168C1F30A5040F2FF72904220D1F5
:100B4000080302BF0B98006800280AD10B98032104
:100B500081619DF8300061381A2858D30FF2A44102
:100B600009E00B98032181619DF8300061381A2853
:100B70004AD30FF288410B98C068032200F026FB8D
:100B800001E1012807DA0B9800F05BFB012802DB8A
:100B900000230026EEE00B9A526840F2FE3161F32A
:100BA0001E520B994A6040F2FE31461A40464946B1
:100BB0000022002300F066FB38BF89F0004936B2FE
:100BC00047F2975070434A49DFF828B190FBF1F69D
:100BD00036B2C6F107079246012F1BDBF80707D58F
:100BE00052465B464046494600F064FB80468946D3
:100BF0007F105046594652465B4600F05BFB8246EA
:100C00008B46002FEAD126E00FF2EC31B3E70FF26A
:100C1000F031B0E77F420024374D12E0F80707D5E6
:100C200052465B462046294600F044FB04460D46EA
:100C30007F105046594652465B4600F03BFB8246C9
:100C40008B46002FEAD14046494622462B4600F00B
:100C500003FC804689469DF8300040F02005662D53
:100C60000CBF06F10A0006200B99096B4718142FD8
:100C7000A8BF132730208DF804000DF10504DFF81C
:100C80007CB0012F3CDB4046494600F009FD01469F
:100C900004F1080204234FF00A0CB1FBFCFC0CEB3E
:100CA0008C04A1EB4401303102F8011D0A21BCFB88
:100CB000F1FE0EEB8E04ACEB44043034714602F8C6
:100CC000014D5B1EE7D1083F02F10804012FD8DB7C
:100CD00000F0FCFC02460B464046494600F004FD8D
:100CE00000225B4600F0E6FA80468946CBE700BF6B
:100CF000A0860100000024400000F03F84D7974107
:100D00000DF10500201A0DF1050702E0401E761EC8
:100D10007F1C39783029F9D0662D02D136B2711C8A
:100D200003E0652D0CBF012100210B9A126B8B187B
:100D30001BB29842B8BF03461BB219001AD48142B5
:100D400004DAC85D3528A8BF392000DA3020CA1976
:100D5000521E00E05B1E12F80159491E8542F9D06F
:100D6000392802D1C85D401CC855002902D57F1E14
:100D70005B1C761C36B29DF830100B9800961BB2A7
:100D80003A4600F003F80DB0BDE8F08F2DE9F047CA
:100D900086B006468A4690461D4600F082FD406AAF
:100DA000376B90F80090012D02DA01250FF25828D8
:100DB0004AF02000BDF93840662808BF641C13D0F3
:100DC000672840F0878014F1040F72DBBC4270DAB0
:100DD00096F83800641C000702D4BD42B8BF2F4605
:100DE00024B23F1B48BF0027F068B16924B2012C30
:100DF00021DA30234A1C0B54012F03DA96F83810FD
:100E0000090702D502F80090521CB261E742B8BF50
:100E10007C4224B26142E7197162AF42B8BF3D46DD
:100E20002DB2F5612A46B3694146181800F0CEF993
:100E3000781BB062ADE00818A54216DA2A46414692
:100E400000F0C4F9B1696918B161601B7062012FCB
:100E500003DA96F83800000705D5F06801F800902D
:100E6000F069401CF061B76293E02246414600F011
:100E7000ADF9B06920182D1B012F03DA96F8381050
:100E8000090703D5F16800F80190401C2DB2B0614C
:100E9000AF42B8BF3D46F3682DB22A4604EB0801C5
:100EA000C01800F093F9B0692818B061781B70621F
:100EB0006FE0BD4204DA96F83810090758BF2F4694
:100EC0007F1E48BF0027BAF1670F0CBF4FF0650ABD
:100ED0004FF0450AB169F06818F8013B0B544A1C01
:100EE000012F05DA96F83810090758BFB26115D5F9
:100EF00002F80090531CB361012F0FDB6D1E2DB261
:100F0000AF42B8BF3D462DB22A464146181800F000
:100F10005DF9B0692818B061781B7062B069F1683A
:100F200000EB0108200008F801AB03D42B2008F8DF
:100F3000010B03E02D2108F8011B6442002502AFDC
:100F400008E00A2200A800F0C5FC019807F8010B90
:100F50006D1C009C21B20129F3DA022D06DA4AF059
:100F60002000652804BF302008F8010B4DB930205F
:100F700008F8010B07E06D1E02A8285C303008F865
:100F8000010B012DF7DAB069F1684018A8EB0000F9
:100F9000F06196F8380000F0140010280DD1706947
:100FA000B1690818716A0818F1690818B16A081857
:100FB000716B8842BCBF081A306206B0BDE8F0878A
:100FC000F8B504460D4616461F46002004E0E86AC0
:100FD000401CE8627F1E002047B116F8011BA8687C
:100FE000A047A8600028F2D14FF0FF30F2BD00000A
:100FF000686A6C747A4C00006E616E004E414E005F
:10100000696E6600494E4600300050F8041B61B11D
:1010100050F8042BD30744BFA9F101039A18002309
:1010200042F8043B091FFAD1EFE770470278C9B2D2
:101030008A421AB11CBF10F8012FF9E718BF00202F
:1010400070470268531C03601170704700F1010380
:10105000810704D010F8011B89B18107FAD1026819
:10106000B2F10131914311F0803F04BF50F8042FD9
:10107000F6E710F8011B11B110F8011BFBE7C01ACD
:1010800070470000C9B2830706D0521E22D310F861
:10109000013B9942F7D11FE0083A13D302F1040251
:1010A00041EA012141EA014150F8043B121F21BFEE
:1010B0004B40A3F1013C2CEA030C1CF0803FF3D021
:1010C000C9B2001F083210F8013B521E28BF91EA36
:1010D000030FF8D818BF0120401E70471B4213D1E0
:1010E000094236D12AB18446B0FBF2F002FB10C2AD
:1010F000704700F0F7BBFCD30022002370470B00C1
:101100000200002100207047904271EB030CF6D3DF
:1011100070B5B1FA81F4B3FA83F52C1BA340C4F186
:10112000200532FA05F63343A2405FF00046E64060
:1011300002E05B085FEA3202841A71EB030524BF08
:10114000204629467641F4D302000B0030000021EE
:1011500070BD012ACFD970B5140C20D0B1FA81F43A
:10116000B2FA82F5C4F120046419B4F12006D6D392
:10117000B2405FF00044F440002502E052085FEA0C
:101180003303C61A71EB020E24BF30467146644128
:101190006D41F3D302000B002000290070BD0C4606
:1011A000B1FBF2F102FB11452D0445EA1045B5FBF8
:1011B000F2F402FB145580B240EA0545B5FBF2F0AB
:1011C00002FB105240EA044070BD000062B38B077E
:1011D00008D0521E11F8013B00F8013B00F02480BA
:1011E0008B07F6D1830740F0208000BF103A07D369
:1011F00030B4B1E83810103AA0E83810F9D230BC59
:10120000530724BFB1E80810A0E8081044BF51F804
:10121000043B40F8043BD20724BF31F8022B20F8EE
:10122000022B44BF0B7803707047083A07D3B1E82C
:101230000810083A40F8043B40F804CBF7D25307B3
:10124000E4E730B4436803F0004201211B031B0BA9
:10125000436004BF0368002B08D10DE00368DD0F75
:1012600045EA440444605B000360491E4468E302AD
:10127000F4D523031B0B436043681A4342600846BE
:1012800030BC70474FF4001C1CEB410F94BF1CEBAB
:10129000430F09E041EA030C50EA4C0C52EA0C0CF3
:1012A00003D2994208BF9042704714BF8B428242DA
:1012B00070470000B0B581EA030C0CF0004C40F21E
:1012C000FF7515EA11541DBF15EA1357AC42AF4222
:1012D00039E0E41923EA455343F48013C90241F08D
:1012E000004141EA505EC7021100A7FB020200283C
:1012F0004FF00000EEFB01204FF00001E3FB07215F
:1013000018BF42F00102401800214941E3FB0E01E1
:10131000A4F580640F0302D252004041494154F1C8
:1013200001046CDD470872F1004250F1000051EBFE
:101330000451A1F580115CBF41EA0C01B0BD4CEA3B
:1013400005510020B0BD05EA1357AC4214BFAF42AF
:1013500041E050EA410E1CBF52EA430E02E06146F2
:101360000020B0BD24423C441BD15FEA070EF6D0FA
:10137000090302BF01460020AEF1140EB1FA81F755
:10138000AEEB070401FA07FE0C37C7F1200100FAA3
:1013900007F7C8404EEA000E23EA455343F4801392
:1013A000A2E733F00043B3FA83F704BFB2FA82FE38
:1013B00077440B3FE41BB7F1200E2FBF02FA0EF368
:1013C000BB40C7F1200E22FA0EFE38BF43EA0E03DF
:1013D000BA40641C82E750EA410E14BF52EA430E41
:1013E0006FF000014FF4001717EB430F8ABF194647
:1013F00017EB410FB5E74CEA05510020B0BDD4F121
:101400000104B4F120070FDAC4F12007520828BF05
:1014100042F0010210FA07F501FA07F7E1BF2A438B
:10142000E0403843E1400FE0352C98DCC7F1200460
:1014300052EA400220FA07F218BF42F0010231FAE4
:1014400007F0A1400A43002172F1004250F1000070
:1014500051EB0C01B0BD0000F0B540F2FF7581EA20
:10146000030C0CF0004C15EA11541DBF15EA13577C
:10147000AC42AF42E5E0BC41C1F31301C3F3130337
:10148000801A994143F4801304D2641E40004941FC
:1014900080185941C90241EA5051B1FBF3F603FBF0
:1014A0001611A2FB0675D7EBC020A94102D2761E09
:1014B00080185941C90241EA5051B1FBF3FE03FBC8
:1014C0001E11A2FB0E75D7EBC020A94103D2AEF1CD
:1014D000010E80185941890241EA9051760546EA89
:1014E0008E2EB1FBF3F603FB1611A2FB0675D7EBAC
:1014F0008020A94102D2761E80185941C90241EAD2
:1015000050514EEA060EB1FBF3F603FB1611A2FB97
:101510000675D7EBC020A94102D2761E801859412A
:10152000C90241EA5051B1FBF3F703FB1711A2FBCB
:101530000735D3EBC020A94167F100070CBF00427B
:1015400047F0010766F3D5274FEA1E31B80814F5B6
:10155000806412DDBD0775F1004250EB0E5051EB77
:10156000045111F5801F5CBF41EA0C01F0BD4CF045
:101570007F6141F0E0410020F0BDBD076D0840EA09
:101580000E5041F48011D4F10104B4F120060ADABE
:10159000C4F120060200E04001FA06F3E1401843DE
:1015A000B24015430EE0342C13DCC6F1200445EAAA
:1015B00040056D0820FA06F2154321FA06F0A14015
:1015C0000D43002175F1004250F1000051EB0C0178
:1015D000F0BD00205FEA0C01F0BDCFB992185B416D
:1015E000B3FA83F704BFB2FA82F6BF190B3FB7F123
:1015F00020062FBF02FA06F3BB40C7F1200622FAED
:1016000006F638BF3343BA401CB1E419641E33E711
:101610007F4231F00041B1FA81F404BFB0FA80F6A4
:10162000A4190B3CB4F120062FBF00FA06F1A1402B
:10163000C4F1200620FA06F638BF3143A0403C1B17
:101640001AE7AC421ABF05EA1357AF4212E050EA5C
:1016500041061CBF52EA4306BFE750EA4107304645
:1016600061461CBF41EA0551F0BD52EA430C08BF78
:10167000C143F0BD00204FF4001616EB410F98BF98
:1016800016EB430F08BF16EB410F24BFC14305E023
:1016900016EB430F0CBF61464CEA0551F0BD00004C
:1016A000400D40EAC120490080F00D8040F000402C
:1016B000490DA1F58061491C05D4D1F11F0154BF2A
:1016C000C840C01770474FF000007047010000BFCE
:1016D00009D0B0FA80F18840C91CC1F584610905C0
:1016E00001EBD0214005704770B44FF0004591EAFE
:1016F000030F44BF6B4000F0F7B800BF841A71EBD2
:10170000030604D26E40001BB141121973414FF41D
:10171000001C1CEB410F34BF7CEB430684E00C0D36
:10172000A4EB1356362E7DDC012E43DC45EAC323A1
:1017300043EA525312BFD20292025B08240545EAE3
:10174000C12141EA5051D2EBC020994125D407D1A3
:10175000B0FA80F610FA06F164D00020203608E0D6
:10176000B1FA81F6B140C6F1200220FA02F211432B
:10177000B0404FEAF474B4EB465434F001064FEA3B
:1017800074040AD8D6F50016760D04F00044F04033
:1017900061FA06F25040F1404840C00A40EA415028
:1017A00021F0004128BF5FEA500550F1000044EBF2
:1017B000D12137E045EAC323DB0A45EAC121C90A42
:1017C000B6F120050EDD42EA0242120CC5F12006F8
:1017D00003FA06F6EB4042EA06056D42984161F1D4
:1017E00000010DE062FA06F5F240554063FA06FC8E
:1017F00082EA0C02F3405A406D42904161EB0301D2
:1018000011F4801F05D1641E620502D06D004041B5
:10181000494121F48011430875F1004350F1000063
:1018200041EB045170BC70471CEB410F15D223F003
:10183000004352EA43060BD04FEA4C0CBCEB410F7D
:1018400004D80C0D661E342EB7DDEBE7801A9941E3
:1018500050EA410608BF0021E4E708BF1CEB430F34
:1018600028BF6FF00001DDE780B5134800F0A6F84F
:101870000FF24801016041608160C1600161416116
:1018800081610FF23C0242628162C1620163416385
:101890000FF2300282630FF23402C26301644164CA
:1018A00001BD10B5044800F089F80446206808B965
:1018B000FFF7DAFF204610BD3419FF1F00000000BB
:1018C0002E00000066616C7365000000747275651F
:1018D0000000000091FBF2F303FB1211C0E900319C
:1018E0007047000070470000841A71EB030603D2B2
:1018F000001BB141121973414FF4001C1CEB410F46
:1019000034BF7CEB430443E00C0DA4EB1356352E9F
:1019100050DC45EAC323DB0A45EAC121C912B6F10E
:1019200020050DDD63FA05F6EB4086EA0305124259
:1019300018BF45F00105C01851F100010CD213E0A9
:1019400062FA06F5F2405540F3415A40B340F34085
:101950005A408018594107D349085FEA30005FEACE
:10196000350528BF45F0010501F58011420875F1E4
:10197000004250F1000041EB045170BC4FF4001CD8
:101980001CEB410F38BF70470020090D0905704757
:101990001CEB410F10D252EA43060BD0BCEB410FB7
:1019A00005D80C0DAB43661E342EB5DD02E0AB430B
:1019B0008018594170BC704770BC70477047000078
:1019C0001D09000000B0034000B00B400000000003
:1019D0000000000000000000000000000000000007
:1019E000000000000000000000004E6F6E4D6173AB
:1019F0006B61626C6500000000486172644661754D
:101A00006C740000000000004D656D4D616E6167F3
:101A1000656D656E7400004275734661756C740087
:101A200000000000000055736167654661756C74C5
:101A300000000000000000000000000000000000A6
:101A40000000000000000000000000000000000096
:101A50000000000000000000000000000000000086
:101A60000000000000000000000000000000000076
:101A700000535643616C6C00000000000000000041
:101A800044656275674D6F6E69746F720000000087
:101A90000000000000000000000000000000506591
:101AA0006E6453560000000000000000005379737C
:101AB0005469636B0000000000000000444D413099
:101AC0000000000000000000000000444D41310013
:101AD00000000000000000000000444D4132000002
:101AE000000000000000000000444D4133000000F1
:101AF0000000000000000000444D413400000000E0
:101B000000000000000000444D41350000000000CE
:101B1000000000000000444D4136000000000000BD
:101B20000000000000444D413700000000000000AC
:101B300000000000444D413800000000000000009B
:101B4000000000444D41390000000000000000008A
:101B50000000444D41313000000000000000000052
:101B600000444D4131310000000000000000000041
:101B7000444D4131320000000000000000000044EC
:101B80004D41313300000000000000000000444DD2
:101B900041313400000000000000000000444D41CD
:101BA000313500000000000000000000444D415F9E
:101BB0004572726F720000000000004D434D00003E
:101BC000000000000000000000004654464C0000E9
:101BD000000000000000000000526561645F436F78
:101BE0006C6C6973696F6E004C56445F4C565700BD
:101BF000000000000000004C4C57000000000000F6
:101C00000000000000005761746368646F670000A3
:101C10000000000000524E470000000000000000DD
:101C200000000000493243300000000000000000C6
:101C300000000049324331000000000000000000B5
:101C40000000535049300000000000000000000078
:101C50000053504931000000000000000000000067
:101C60005350493200000000000000000000004313
:101C7000414E305F4F525F4D425F62756600434197
:101C80004E305F4275735F4F666600000043414E01
:101C9000305F4572726F72000000000043414E30A9
:101CA0005F54785F5761726E696E6743414E305F73
:101CB00052785F5761726E696E6743414E305F576D
:101CC000616B655F557000000052657365727665E3
:101CD00064353100000000005265736572766564FA
:101CE0003532000000000043414E315F4F525F4DDE
:101CF000425F6275660043414E315F4275735F4FCC
:101D0000666600000043414E315F4572726F72009B
:101D10000000000043414E315F54785F5761726E9E
:101D2000696E6743414E315F52785F5761726E69E9
:101D30006E6743414E315F57616B655F55700000C0
:101D400000526573657276656435390000000000E5
:101D50005265736572766564363000000000005588
:101D6000415254305F52585F5458000000005541B2
:101D70005254305F4552520000000000005541525D
:101D800054315F52585F545800000000554152547E
:101D9000315F45525200000000000055415254325C
:101DA0005F52585F54580000000055415254325F52
:101DB00045525200000000000055415254335F521A
:101DC000585F54580000000055415254335F45524B
:101DD0005200000000000055415254345F52585FD9
:101DE00054580000000055415254345F455252008F
:101DF000000000000055415254355F52585F54585E
:101E00000000000055415254355F45525200000019
:101E100000000041444330000000000000000000CA
:101E200000004144433100000000000000000000B9
:101E300000434D5030000000000000000000000092
:101E4000434D50310000000000000000000000433E
:101E50004D50320000000000000000000000465419
:101E60004D30000000000000000000000046544D0E
:101E700031000000000000000000000046544D3218
:101E80000000000000000000000000434D5400006E
:101E90000000000000000000000052544300000059
:101EA0000000000000000000005265736572766556
:101EB0006438330000000000504954300000000036
:101EC00000000000000000504954310000000000F4
:101ED00000000000000050495432000000000000E3
:101EE00000000000005049543300000000000000D2
:101EF00000000000504442300000000000000000DC
:101F000000000055534230000000000000000000B7
:101F1000000055534244434400000000000000000C
:101F200000454E45545F313538385F54696D6572F0
:101F3000454E45545F5472616E736D69740000457F
:101F40004E45545F52656365697665000000454EF5
:101F500045545F4572726F720000000000493253B1
:101F6000300000000000000000000000534448431F
:101F70000000000000000000000000444143300069
:101F80000000000000000000000044414331000058
:101F90000000000000000000005453493000000021
:101FA00000000000000000004D434700000000005A
:101FB000000000000000004C5054696D6572000084
:101FC0000000000000005265736572766564313070
:101FD0003200000000504F52544100000000000049
:101FE00000000000504F525442000000000000006A
:101FF000000000504F525443000000000000000059
:102000000000504F52544400000000000000000047
:1020100000504F5254450000000000000000000036
:102020005265736572766564313038000000005285
:102030006573657276656431303900000000526561
:10204000736572766564313130000000005265734B
:102050006572766564313131000000005265736548
:10206000727665643131320000000052657365722A
:102070007665643131330000000052657365727615
:102080006564313134000000005265736572766515
:102090006431313500000000526573657276656405
:1020A0003131360000000052657365727665643127
:1020B0003137000000005265736572766564313116
:1020C00038000000005265736572766564313139FD
:1020D00000000000008003400090034000800B409F
:1020E00000900B4000F00F4040F00F4080F00F4098
:1020F000C0F00F4000F10F4066000A1D32000701DA
:10210000640007106E000406780004088200040AC8
:102110008C00040C9600040EA0000410AA00041207
:10212000B4000414BE000416C8000418D200041A37
:10213000DC00041CE100041DE600041EEB00041F8B
:10214000F4000317FA000318130101062C0102140E
:10215000000109080090044000A0044000B00440C1
:1021600000C0044000D0044000C0024000D0024043
:1021700000C00A4000A0064000B0064000C0064073
:1021800000D0064000A00E4000B00E406A6E6B6C9E
:10219000676D4E4F34353637344310100100000060
:1021A000344310100100000002040101DC18FF1F7D
:1021B0002C19FF1FDC18FF1FDC18FF1FDC18FF1F86
:1021C000350CFF1F1C0CFF1F00000000000000006A
:1021D00000000000000000000000000000000000FF
:1021E00000000000000000002DE9FD4F96B00C003B
:1021F000DFF8480600684FF47A7148431899B0FB3D
:10220000F1F705A8DFF838164022FEF7EFFF04A823
:10221000DFF830160A680260002001905FF0FF3995
:102220009DF95800002841D1DFF81C06006850F4E1
:102230008050DFF8141608604FF400710F2000F092
:102240000FFB4FF40071102000F00AFB4FF40071F7
:10225000112000F005FBE00704D54FF400710E20BB
:1022600000F0FEFAA00704D54FF40071432000F0FF
:10227000F7FA600704D54FF40071422000F0F0FA3D
:10228000200704D54FF40071412000F0E9FAE00680
:1022900004D54FF40071402000F0E2FAA0066CD59E
:1022A0004FF44071372000F0DBFA66E09DF95800EA
:1022B000012833D1DFF89005006850F40050DFF8B2
:1022C000881508604FF400712B2000F0C9FA4FF414
:1022D0000071302000F0C4FA4FF40071312000F09A
:1022E000BFFAE00704D54FF400712A2000F0B8FAD5
:1022F000A00704D54FF40071802000F0B1FA600708
:1023000004D54FF40071852000F0AAFA200734D5D7
:102310004FF40071862000F0A3FA2EE09DF95800DA
:10232000022825D1DFF82405006850F48050DFF83A
:102330001C1508604FF40071352000F091FA4FF43D
:102340000071362000F08CFA4FF40071372000F055
:1023500087FAE00704D54FF40071342000F080FACA
:10236000A0070AD54FF400716F2000F079FA04E05D
:102370007B21DFF8DC0400F0E0FA9DF95800DFF87B
:10238000D41451F8200040F6014101609DF9580035
:10239000DFF8C01451F82000DFF8BC14C1629DF9C9
:1023A0005C00002840F0A1809DF95800DFF8A414DB
:1023B00051F82000DFF8A414016000200500EDB200
:1023C000102D20DA00200600F6B2042E19DAEDB244
:1023D00005A850F82500F6B204A9715C484382466E
:1023E000BAEB070000F05CFB8046C84507D2C14647
:1023F000EDB20195F6B20296B9F1000F03D0761C4A
:10240000E2E76D1CDBE7DFF8340400684FF47A7113
:102410004843019905AA52F82110029A04ABD25CF4
:102420005143B0FBF1F00390DFF8100400684FF463
:102430007A7148430399B0FBF1F0400807005FF060
:10244000FF3081460F208DF8010003208DF8020037
:10245000002083465FFA8BFBBBF1100F28DA0120C6
:102460001BF1010188408246B7FBFAF0401E40088C
:102470008DF800009DF80000042816DA9DF8000091
:102480004000401C00FB0AFABAEB070000F008FB12
:102490008046C84509D2C1468DF801B09DF80000BC
:1024A0008DF80200B9F1000F02D01BF1010BD1E74A
:1024B0000298000410F44030019911F00F01084314
:1024C0009DF80110090311F4704108439DF80210B2
:1024D000890511F44001084350F060509DF95810EF
:1024E000DC4A52F82110C86007E09DF95800D9492C
:1024F00051F820005FF07851C1609DF95800D5492E
:1025000051F820000068400840009DF95810D14A59
:1025100052F821100860039819B0BDE8F08FF0B4AC
:10252000049C002540B2CB4E56F82060CA4FF7629B
:1025300040B2C84E56F82060366856F4406640B245
:10254000C44F57F820703E6040B2C24E56F820602B
:10255000F66AB603E6D400263500661EB5422FD2D1
:1025600049B20E0416F47C16AF5C3E4356F00046AA
:1025700040B2B84F57F820707E6340B2B54E56F85F
:102580002060F66AB603F8D5002B06D040B2B14EF3
:1025900056F82060B66BEE5404E040B2AD4E56F8EB
:1025A0002060B66B40B2AB4E56F82060F66A56F427
:1025B000003640B2A74F57F82070FE626D1CCCE782
:1025C00049B20E0416F47C16AF5C3E4356F000662A
:1025D00040B2A04F57F820707E6340B29D4E56F82F
:1025E0002060F66AF600F8D540B29A4E56F82060A0
:1025F000F66AB603F8D5002B06D040B2954E56F8D1
:102600002060B66BEE5404E040B2924E56F8206063
:10261000B66B40B28F4E56F82060F66A56F400361C
:1026200040B28C4F57F82070FE62F0BC70472DE925
:10263000F041069C079D089E099F5FF0000C40B288
:10264000DFF810E25EF820E0DFF80C82CEF82C8094
:1026500040B2DFF800E25EF820E0DEF800E05EF471
:10266000406E40B2DFF8EC8158F82080C8F800E0F6
:1026700040B2DFF8E0E15EF820E0DEF82CE05FEA4F
:102680008E3EDCD45FF0000EF446B44541D249B230
:102690005FEA014E1EF47C1E1CF8028058EA0E0E02
:1026A0005EF0004E40B2DFF8AC8158F82080C8F8E8
:1026B00034E040B2DFF89CE15EF820E0DEF82CE088
:1026C0005FEA8E3EF5D5002B09D040B2DFF884E1F9
:1026D0005EF820E0DEF838E00CF803E006E040B2F7
:1026E000DFF870E15EF820E0DEF838E040B2DFF8B5
:1026F00064E15EF820E0DEF82CE05EF4003E40B2DB
:10270000DFF8508158F82080C8F82CE01CF1010C4B
:10271000BBE75FF0000EF446B7F1010EF44541D27D
:1027200049B25FEA014E1EF47C1E1CF8048058EA90
:102730000E0E5EF0004E40B2DFF8188158F820808F
:10274000C8F834E040B2DFF80CE15EF820E0DEF8D3
:102750002CE05FEA8E3EF5D5002D09D040B2DFF8BF
:10276000F4E05EF820E0DEF838E00CF805E006E082
:1027700040B2DFF8E0E05EF820E0DEF838E040B29A
:10278000DFF8D0E05EF820E0DEF82CE05EF4003EFA
:1027900040B2DFF8C08058F82080C8F82CE01CF167
:1027A000010CB9E749B25FEA014E1EF47C1E1CF829
:1027B000048058EA0E0E5EF0006E40B2DFF894809E
:1027C00058F82080C8F834E040B2DFF888E05EF8BE
:1027D00020E0DEF82CE05FEACE0EF5D540B2DFF85F
:1027E00074E05EF820E0DEF82CE05FEA8E3EF5D57E
:1027F000002D09D040B2DFF85CE05EF820E0DEF8A2
:1028000038E00CF805E006E040B2DFF848E05EF89A
:1028100020E0DEF838E040B2DFF838E05EF820E093
:10282000DEF82CE05EF4003E40B2DFF8288058F875
:102830002080C8F82CE0BDE8F0810000D00EFF1F1A
:10284000204C0000684E00003C8004403080044072
:10285000584B0000B80BFF1F00000A1A00003F8011
:1028600010B4294A12684FF40073C0B24409A3405F
:102870001A43254B1A60C0B24211244B53F8222050
:10288000012310F01F04A340C2F8A030C0B210F022
:102890001F02C0B243111D4C54F8233043F82210DC
:1028A00010BC704710B4184A12684FF40073C0B2DD
:1028B0004409A3401A43144B1A60C0B24211134B8F
:1028C00053F82220012310F01F04A340C2F8A030C7
:1028D00031F4E061C0B210F01F02C0B243110B4CE2
:1028E00054F8233053F8222012F4E0621143C0B2AE
:1028F00010F01F02C0B24311044C54F8233043F8C7
:10290000221010BC7047000038800440A40BFF1F49
:10291000DFF800F0690CFF1FDFF800F0970CFF1FD5
:10292000BFF34F8F5548006810F4E06054490843E6
:1029300052490860BFF34F8FFEE738B504000D0021
:10294000002000F0B1F82A0021004E4800F0E4F821
:10295000002000F0C6F84C4800684FF47A7101FB83
:1029600000F1032000F020F9EDE738B504000D0078
:10297000210049B2032000F083FA200032BD10B5D7
:102980000024042000F096FA042000F0C9FA002880
:1029900055D1002000F088F8042000F0C1FA012889
:1029A00001D101200400002000F09BF8374800F01E
:1029B000B3F8354800684FF4FA7101FB00F10320C9
:1029C00000F0F2F8E4B2012CE6D1042000F0A8FAFD
:1029D0000028E1D1042000F0A3FA00280BD1002048
:1029E00000F07FF828480068642101FB00F1032013
:1029F00000F0DAF8EEE7042000F092FA01280BD19B
:102A0000002000F06EF820480068322101FB00F140
:102A1000032000F0C9F8EEE71D4800F07DF8FFF74D
:102A200077FF19480068642101FB00F1032000F0E2
:102A3000BBF80020FFF770FFFFF772FFACE710BD97
:102A400010B514480468012000F02EF8012000F0B1
:102A500048F8E4B20F20104900FB0412E4B2210050
:102A60000E4800F059F8084800684FF47A7101FBED
:102A700000F1032000F098F8E8E700000CED00E01A
:102A80000400FA051C4D0000D00EFF1F084E000088
:102A9000504D000004ED00E01C04FF1F604C0000DE
:102AA000002848BF4042704710B5040064B2042CAF
:102AB00007DA0122012164B21648205C00F04EFAC8
:102AC0000EE0042004002000441E40B2002807D07D
:102AD0000122012164B20F48205C00F03FFAF2E7C6
:102AE00010BD10B5040064B2042C05DA64B20948C4
:102AF000205C00F08AFA0CE0042004002000441E50
:102B000040B2002805D064B20248205C00F07DFA93
:102B1000F4E710BDE40BFF1F0EB400B582B003A9AB
:102B20000091024600AB0121034878440A30FDF7CA
:102B300073FC06BC5DF810FBAD22000038B5040044
:102B40000D00002D03D122214348FFF7F6FE434834
:102B5000006850F4000041490860414800210160CC
:102B600064B220013F496A1E425064B23D4810EBF6
:102B70000410C06850F0010064B23A4911EB04112E
:102B8000C86064B2374810EB041080684008400009
:102B900064B2344911EB0411886064B2314810EB1F
:102BA00004100321816031BD38B504000D00002DF3
:102BB00003D145212848FFF7C0FE2848006850F49B
:102BC00000002649086026480068800880002449E3
:102BD000086064B2234810EB04108068400840008D
:102BE00064B2204911EB0411886064B220011D49D0
:102BF0006A1E425064B21B4810EB0410C06850F0CB
:102C0000010064B2174911EB0411C86064B21548A1
:102C100010EB041080684008400064B2114911EBC9
:102C20000411886064B20F4810EB04100121816028
:102C300064B20C4810EB0410C068C007F8D564B249
:102C4000084810EB0410C06850F0010064B2054958
:102C500011EB0411C86031BD144B00003C800440EE
:102C600000700340007103402DE9F84304000D009B
:102C700064B2002C08D0022C2CD018D3042C4FD0D6
:102C80003BD3052C5FD071E0DFF81002006850F4F0
:102C90008060DFF8081208604FF440716620FFF78B
:102CA000DFFD4FF440716720FFF7DAFD5EE0DFF8EB
:102CB000EC01006850F40060DFF8E01108604FF4A8
:102CC00040714320FFF7CCFD4FF440714420FFF7E3
:102CD000C7FD4BE0DFF8C401006850F48050DFF816
:102CE000BC1108604FF440716320FFF7B9FD4FF449
:102CF00040716220FFF7B4FD38E0DFF8A001006802
:102D000050F40050DFF8941108604FF440715020E7
:102D1000FFF7A6FD4FF440715120FFF7A1FD25E01C
:102D2000DFF87C01006850F48060DFF874110860FF
:102D30004FF440714E20FFF793FD4FF440714F2048
:102D4000FFF78EFD12E0DFF85801006850F40060D4
:102D5000DFF84C1108604FF440718920FFF780FDC7
:102D60004FF440718820FFF77BFDFFE764B2DFF886
:102D7000340150F82400C07810F0F30064B2DFF89A
:102D8000241151F82410C87064B2DFF8180150F80B
:102D9000240064B2DFF80C1151F824108978817096
:102DA00064B2002C02D064B2012C07D1DFF8F80025
:102DB00000684FF47A714843814606E0DFF8EC0082
:102DC00000684FF47A71484381462801B9FBF0F05E
:102DD0000600B6B2B6F5005F02DB41F6FF700600F2
:102DE000B9FBF5F0B6B2B0EB06100700BFB2202F6A
:102DF00003DBDC212E48FFF7A0FD64B2294850F820
:102E00002400007810F0E0008046B6B2300A10F0DE
:102E10001F0050EA080064B2224951F824100870DB
:102E200064B2204850F82400467064B21D4850F83F
:102E30002400807A10F0E000804664B2194850F80F
:102E4000240017F01F0151EA0801817264B215488D
:102E500050F82400007C50F0880064B2114951F809
:102E60002410087464B20F4850F82400C07850F061
:102E70000C0064B20B4951F82410C870BDE8F1830E
:102E800040B2084A52F8202012791206F8D540B212
:102E9000044A52F82020D171704700003480044069
:102EA00028800440C40BFF1FC80EFF1FD00EFF1F59
:102EB0009C4B000010B5040064B2082C0DDA00220F
:102EC000002164B22348205C00F048F8032164B27A
:102ED0002048205CFFF7E6FC14E0082004002000F6
:102EE000441E40B200280DD00022002164B21948CF
:102EF000205C00F033F8032164B21648205CFFF731
:102F0000D1FCECE710BD10B5040064B21148205CA0
:102F100000F097F8002801D1002000E0012010BD4A
:102F200010B50400200040B2FFF7EDFF00280FD1DC
:102F3000094800680A2101FB00F10320FFF734FE75
:102F4000200040B2FFF7DFFF002801D1002000E0A1
:102F5000012010BDDC0BFF1FD00EFF1F70B5040059
:102F60000D0016004FF480712000C0B2FFF778FC0E
:102F70006DB2002D11D1E4B26011404951F820002A
:102F8000E4B261113D4A52F821104969012214F05E
:102F90001F039A409143416136E0E4B26011374922
:102FA00051F82000E4B26111344A52F82110496905
:102FB000012214F01F039A4011434161F6B2002E22
:102FC00011D1E4B260112D4951F8200000680121AF
:102FD00014F01F0291408843E4B26111274A52F86D
:102FE0002110086010E0E4B26011244951F820007B
:102FF0000068012114F01F0291400843E4B26111FE
:103000001E4A52F82110086070BD10B50400E4B2E9
:1030100060111A4951F82000406914F01F01C8409E
:10302000C00703D47B211648FFF787FCE4B2601188
:10303000124951F82000012114F01F029140C16093
:1030400010BD10B50400E4B260110C4951F8200025
:10305000406914F01F01C840C00703D58C210848FF
:10306000FFF76BFCE4B26011044951F820000069DD
:1030700014F01F01C84010F0010010BD340BFF1FF9
:10308000D04A000038B504000D0064B2002C06D010
:10309000022C69D04CD3032C00F08280C7E0DFF80B
:1030A0006C05006850F08070DFF8601508606DB244
:1030B000002D0BD0022D15D00ED3042D1ED017D30A
:1030C000062D27D020D3072D2AD02FE04FF4806182
:1030D0004120FFF7C5FB2AE04FF440710420FFF7C1
:1030E000BFFB24E04FF440710520FFF7B9FB1EE061
:1030F0004FF440710620FFF7B3FB18E04FF4407126
:103100000720FFF7ADFB12E04FF480616520FFF769
:10311000A7FB0CE04FF480616620FFF7A1FB06E0FF
:103120004FF480616720FFF79BFB00E07FE07EE0CB
:10313000DFF8D804006850F00070DFF8D0140860A1
:103140006DB2002D02D0012D06D00BE04FF440717E
:103150000C20FFF785FB06E04FF440710D20FFF7D0
:103160007FFB00E063E062E0DFF8A404006850F059
:103170008070DFF89C1408606DB2002D02D0012D24
:1031800006D00BE04FF440710A20FFF769FB06E020
:103190004FF440710B20FFF763FB00E047E046E08F
:1031A000DFF86C04006850F00070DFF86414086009
:1031B0006DB2002D0BD0022D15D00ED3042D1ED0D4
:1031C00017D3062D27D020D3072D2AD02EE04FF479
:1031D000C0618520FFF744FB28E04FF4C0618620E2
:1031E000FFF73EFB22E04FF4C0618720FFF738FB7A
:1031F0001CE04FF4C0618820FFF732FB16E04FF46B
:10320000C0618920FFF72CFB10E04FF4C0618A20D9
:10321000FFF726FB0AE04FF4C0618B20FFF720FB8D
:1032200004E04FF4C0618C20FFF71AFBFFE731BDCB
:103230002DE9F84F04000D0016001F0064B2002CA9
:1032400011D064B2012C02D064B2022C02D16DB252
:10325000022D08DB64B2032C05D04FF4C271DFF8F5
:10326000B403FFF76AFB290049B2200040B2FFF720
:1032700009FFDFF8A40300684FF47A7148438046E1
:103280005FEA1840B0FBF6F08146002082461FFA44
:1032900089F959FA0AF0012802DB1AF1010AF6E766
:1032A0005FFA8AFABAF1080F05DB40F29F11DFF8E6
:1032B0006403FFF742FB38FA0AF0B0FBF6F08146F0
:1032C00064B2002C05D0022C19D00DD3032C21D0D0
:1032D0002BE01FFA89F919F1010000FB07F06421C6
:1032E000B0FBF1F0834620E01FFA89F919F10100E3
:1032F00000FB07F06421B0FBF1F0834615E01FFAF4
:1033000089F919F1010000FB07F06421B0FBF1F02D
:1033100083460AE01FFA89F919F1010000FB07F062
:103320006421B0FBF1F08346FFE76DB264B2DFF8D1
:10333000EC0250F8240010EBC5006DB264B2DFF867
:10334000DC1251F8241011EBC501C96831F00401F9
:10335000C1606DB264B2DFF8C40250F8240010EB13
:10336000C5002821C16064B2DFF8B00250F8240023
:103370005FFA8AFA1AF0070151F00801016064B29D
:10338000DFF8980250F824001FFA89F9C0F8089075
:1033900064B2DFF8880250F824000021C1646DB2E5
:1033A00064B2DFF8780250F8240010EBC5001FFA71
:1033B0008BFBC0F810B064B2DFF8600250F8240054
:1033C00000214160BDE8F18F2DE9F04104000D00BE
:1033D00016005FF0000864B2002C11D064B2012C1A
:1033E00002D064B2022C02D16DB2022D08DB64B2AD
:1033F000032C05D040F2E311DFF81802FFF79DFA25
:1034000064B2002C05D0022C15D00BD3032C1BD09A
:1034100023E0652E05D340F2E911DFF8F801FFF74C
:103420008CFA1AE0652E05D340F2ED11DFF8E401C5
:10343000FFF783FA11E0652E05D340F2F111DFF8B2
:10344000D401FFF77AFA08E0652E05D34FF4FB713B
:10345000DFF8C001FFF771FAFFE764B2DFF8BC01E3
:1034600050F8240080688046B8F1000FF5D064B2AF
:10347000002C05D0022C15D00BD3032C1BD023E03D
:1034800018F1010000FB06F06421B0FBF1F0070029
:103490001AE018F1010000FB06F06421B0FBF1F026
:1034A000070011E018F1010000FB06F06421B0FBF9
:1034B000F1F0070008E018F1010000FB06F06421BC
:1034C000B0FBF1F00700FFE76DB264B2DFF84C012A
:1034D00050F8240010EBC5000761BDE8F08110B57D
:1034E000040064B2012C07D064B2022C04D040F274
:1034F000DA214848FFF721FA64B22000012802D0FF
:10350000022811D021E04148006850F000703F4986
:1035100008604FF4E0610C20FFF7A2F94FF4E0617E
:103520000D20FFF79DF915E03948006850F08070D4
:10353000374908604FF4C0610A20FFF791F94FF452
:10354000C0610B20FFF78CF904E040F212313148E2
:10355000FFF7F3F964B2314850F82400406D50F0A1
:10356000040064B22D4951F82410486564B22B4818
:1035700050F82400D0F8800050F0080064B22749C9
:1035800051F82410C1F8800064B2244850F8240097
:103590000021C16464B2214850F824004FF6FF7145
:1035A000816064B21D4850F82400D0F8800050F0CB
:1035B000010064B2194951F82410C1F8800064B2C6
:1035C000164850F82400406D50F0010064B21349D1
:1035D00051F82410486564B2104850F824000021C6
:1035E000416010BD10B5040064B2012C07D064B274
:1035F000022C04D040F23D310648FFF79EF964B238
:10360000064850F824000021416010BD3C80044071
:10361000308004408C4A0000D00EFF1F240BFF1F97
:1036200080B5DFF8D433002201210020FEF7DCFD55
:10363000002201219C20FFF791FC002200219B2009
:10364000FFF78CFCDFF8B4139B20FFF72BF9DFF8B2
:10365000B003002101600321232000F035F8282168
:10366000252000F031F80F21262000F02DF801214F
:10367000212000F029F80121222000F025F8052260
:10368000DFF880132A2000F046F82021312000F0D6
:103690001BF8FF21E22000F017F80522DFF868137D
:1036A000302000F038F80F21242000F00DF8FF2121
:1036B000E12000F009F800F092F8DFF8440301215E
:1036C000016000F050F802BD30B583B004000D0079
:1036D0008DF804408DF805500220009001AB01AA3E
:1036E00001210020FEF71BFF9DF804003EBD30B510
:1036F00083B004000D008DF804400220009001AB5F
:1037000001AA01210020FEF70AFF9DF8050028709C
:103710009DF804003EBD31B584B00C001500039542
:103720000120029000200190009404AB04AA012122
:103730000020FEF77CFF9DF8100005B030BD31B5CC
:1037400084B00C0015000395012002900194002024
:10375000009004AB04AA01210020FEF768FF9DF849
:10376000100005B030BD10B588B005A8DFF89C1278
:103770000CC90CC00839083830208DF8100005201D
:103780000390012002900020019005A800900023E2
:1037900004AA01210020FEF74AFF10208DF8100036
:1037A000052003900120029005A8019000200090C0
:1037B000002304AA01210020FEF739FF00200400A5
:1037C000E4B2052C08DAE4B205A8205CC22801D0D6
:1037D000002002E0641CF3E7012008B010BD80B5B2
:1037E000DFF81C020021016001212120FFF76CFF9E
:1037F00001212220FFF768FF0522DFF808122A20A6
:10380000FFF789FF0F212020FFF75EFFFF21272010
:10381000FFF75AFFFF21E220FFF756FFDFF8E00134
:1038200001210160DFF8E8010221017001BD80B5CE
:10383000DFF8CC01002101600522DFF8CC11302037
:10384000FFF769FF0522DFF8BC112A20FFF763FFAD
:103850000E212020FFF738FF6948012101606C48E4
:103860000121017040F6FF7000900098411E009108
:103870000028FAD101BD38B504000D0069480021C7
:103880000170002C01D0002D01D100201DE0664800
:103890000068002818D1681E400964490860624821
:1038A00004605B480078012801D0FFF7C0FF54484E
:1038B0000021016020222100A020FFF72CFF5048AA
:1038C00001210160012000E0002032BD564800685F
:1038D00000280BD155480068002807D151480078CE
:1038E000002801D0012002E0022000E00020704703
:1038F00010B582B000A90720FFF7F9FE9DF800106F
:103900002720FFF7E1FE9DF80000400632D53C4835
:10391000002101603F480078022824D0202240483E
:1039200000783E4911EB40116120FFF708FF3C4849
:103930000078401C3A49087039480078502802DB6A
:10394000374800210170344800780400344800787A
:10395000E4B2A04203D12F480221017007E02D48B4
:103960000121017003E0FF21E220FFF7ADFE2448B2
:10397000012101609DF80000800629D52B480068D0
:10398000002809D128480021016021480078022838
:103990001ED0FFF724FF1BE01D480078012801D04E
:1039A000FFF745FF2048006820301F4908601F4886
:1039B0000068401E1D490860114800210160202256
:1039C00019480168A020FFF7A6FE0D4801210160FB
:1039D0009DF80000C0060ED5124801210170FF219C
:1039E000E120FFF771FE1048002101600F4800211F
:1039F0000160FFF7F4FE13BD20BCBE0003000A0007
:103A00007020FE43F00BFF1FE80BFF1F604E00000D
:103A10002C19FF1F2F19FF1F2D19FF1FD40EFF1F79
:103A20002E19FF1F3019FF1FD418FF1FD818FF1FB2
:103A3000DFF800F0E90DFF1F40B2DFF8981331F80E
:103A4000201040B20128C0F26B8140B2162880F2EB
:103A50006781DFF884230023137089B23D2904DADB
:103A6000DFF874230023537078E089B2792904DAEF
:103A7000DFF864230123537070E089B2B52904DABA
:103A8000DFF854230223537068E089B2F12904DA85
:103A9000DFF844230323537060E089B2B1F5967FC9
:103AA00004DCDFF834230423537057E089B2B1F506
:103AB000B47F04DCDFF82023052353704EE089B285
:103AC000B1F5D27F04DCDFF810230623537045E004
:103AD00089B2B1F5F07F04DCDFF8FC2207235370D4
:103AE0003CE089B2B1F5077F04DCDFF8EC22082363
:103AF000537033E089B2B1F5167F04DCDFF8D822C9
:103B0000092353702AE089B2B1F5257F03DCB24A5C
:103B10000A23537022E089B2B1F5347F03DCAE4A48
:103B20000B2353701AE089B2B1F5437F03DCAA4A34
:103B30000C23537012E089B2B1F5527F03DCA64A20
:103B40000D2353700AE089B2B1F5617F03DCA24A0C
:103B50000E23537002E0A04A0F23537089B21A2932
:103B600003DA9D4A0023937069E089B2332903DAAE
:103B7000994A0123937062E089B24C2903DA964A8C
:103B8000022393705BE089B2652903DA924A03232A
:103B9000937054E089B27E2903DA8F4A042393702C
:103BA0004DE089B2972903DA8B4A0523937046E0EA
:103BB00089B2B02903DA884A062393703FE089B2BC
:103BC000C92903DA844A0723937038E089B2E229CD
:103BD00003DA814A0823937031E089B2FB2903DAC2
:103BE0007D4A092393702AE089B2B1F58A7F03DA0E
:103BF000794A0A23937022E089B2B1F5967F03DCFB
:103C0000754A0B2393701AE089B2B1F5A37F03DAEA
:103C1000714A0C23937012E089B2B1F5AF7F03DCD7
:103C20006D4A0D2393700AE089B2B1F5BC7F03DAC7
:103C3000694A0E23937002E0674A0F23937089B29A
:103C40001A2903DA644A0023D37069E089B2332960
:103C500003DA614A0123D37062E089B24C2903DAA6
:103C60005D4A0223D3705BE089B2652903DA5A4AC0
:103C70000323D37054E089B27E2903DA564A042321
:103C8000D3704DE089B2972903DA534A0523D370E4
:103C900046E089B2B02903DA4F4A0623D3703FE0E9
:103CA00089B2C92903DA4C4A0723D37038E089B2B4
:103CB000E22903DA484A0823D37031E089B2FB29AC
:103CC00003DA454A0923D3702AE089B2B1F58A7F25
:103CD00003DA414A0A23D37022E089B2B1F5967F14
:103CE00003DC3D4A0B23D3701AE089B2B1F5A37F00
:103CF00003DA394A0C23D37012E089B2B1F5AF7FF1
:103D000003DC354A0D23D3700AE089B2B1F5BC7FDC
:103D100003DA314A0E23D37002E02F4A0F23D37007
:103D2000704710B50400200040B2FFF785FE2B4815
:103D3000007810F0FD00294908702848007850F0FC
:103D40001000264908702648B821017025480078DF
:103D5000C006FBD423480078C0F38100C0B202281B
:103D6000F8D11D48C3781C4882781B4841781A480E
:103D70000078FFF75DFE64B2164810EB840080788F
:103D800010F007001849087064B2124810EB840064
:103D9000C07810F01F0050F040001449087011481E
:103DA00000788006FBD50F4800784006FBD50C480C
:103DB000007810F03F000A4908700A480078C0F304
:103DC0008100C0B20328F8D164B2024830F8240060
:103DD000C0B210BD480BFF1FA00BFF1F01400640E3
:103DE00000400640064006400440064005400640AC
:103DF000F8B50024002500260027DFF8F402002192
:103E00000160DFF8EC0200680A2841DA002108208E
:103E100000F09DFAB74908800021092000F097FAC8
:103E2000B449488000210C2000F091FAB149888003
:103E300000210D2000F08BFAAE49C880AC48006824
:103E4000AD49AC4A128821F81020A9480068AB4956
:103E5000A84A528821F81020A5480068A849A54A18
:103E6000928821F81020A2480068A649A14AD28869
:103E700021F81020A4480068322101FB00F1032042
:103E8000FEF792FE9A480068401C99490860B8E71E
:103E90009E489949098801609D48974909880160B1
:103EA0009C489649098801609B48944909880160AB
:103EB0009A489349098801609948914909880160A5
:103EC000984890490988016097488E49098801609F
:103ED00096480021016095480068092880F2B28068
:103EE0008A48006891490968834A12EB4101498870
:103EF000884207DA8D4800687F4911EB400040880E
:103F000082490860894800687B4911EB400040887D
:103F10007F490968884207DA84480068764911EBCE
:103F2000400040887A4908607A4800687F490968FB
:103F3000724A12EB41014988884207DA7B480068DF
:103F40006E4911EB4000408872490860774800686C
:103F50006A4911EB400040886F490968884207DAD6
:103F600072480068654911EB400040886A49086062
:103F70006A4800686D490968614A12EB4101498845
:103F8000884207DA694800685D4911EB40004088C3
:103F90006249086065480068594911EB4000408853
:103FA0005F490968884207DA60480068544911EBA4
:103FB000400040885A4908605A4800685B490968CF
:103FC000504A12EB41014988884207DA5748006895
:103FD0004C4911EB40004088524908605348006842
:103FE000484911EB400040884F490968884207DA88
:103FF0004E480068434911EB400040884A49086038
:104000004A4800683C4931F8100014FA80F44748E7
:1040100000683A4931F8100015FA80F54348006805
:10402000374931F8100016FA80F6404800683549E3
:1040300031F8100017FA80F73C480068401C3B49F3
:10404000086048E731480068201A31490968401A79
:10405000082190FBF1F0364908602E480068281AC4
:104060002D490968401A082190FBF1F03149086098
:104070002A480068301A2A490968401A082190FB2A
:10408000F1F02D49086027480068381A2649096868
:10409000401A082190FBF1F028490860F1BD80B575
:1040A00026480068022808DB23480068052804DB4E
:1040B0001E2203210320FFF787F920480068022809
:1040C00008DA1D480068062804DA242203210320A8
:1040D000FFF77AF919480068022808DA16480068DC
:1040E000022804DA2A2203210320FFF76DF901BD1B
:1040F000380EFF1F700EFF1F780EFF1F8C0EFF1F64
:10410000A00EFF1FB40EFF1FD00EFF1F400EFF1F9B
:10411000500EFF1F440EFF1F540EFF1F480EFF1FBF
:10412000580EFF1F4C0EFF1F5C0EFF1F3C0EFF1FA3
:10413000600EFF1F640EFF1F680EFF1F6C0EFF1F37
:1041400038B5040064B26511EDB2002D02D0012D26
:1041500011D021E0A348006850F00060A149086038
:10416000A148006830F090009F4908609E489E4931
:104170000968016014E09D48006850F000609B49A8
:1041800008609948006830F41040974908609648E4
:1041900095490968016003E033219548FEF7CDFB9E
:1041A00064B22000002800F08980012800F0868099
:1041B000032800F0838008284ED0092851D00A280F
:1041C00054D00B2857D00C285AD00D285DD00E287B
:1041D00060D00F2863D0102870D0112864D0122826
:1041E00067D013286AD0142868D01A2866D01D28F2
:1041F00064D01E2862D0202861D021285FD02328D7
:104200005DD024285CD025285FD0262862D02728BE
:1042100065D0282868D029286BD02A286ED02B2872
:1042200071D02C2874D02D2877D02E287AD02F2822
:104230007DD0302800F0858031287DD0322800F0F4
:10424000808033287DD034287BD03A2879D03D280F
:1042500077D03E2875D075E000212020FEF700FBC6
:1042600074E000212120FEF7FBFA6FE00021072017
:10427000FEF7F6FA6AE000210820FEF7F1FA65E0A1
:1042800000212220FEF7ECFA60E000212320FEF757
:10429000E7FA5BE000214020FEF7E2FA56E0002159
:1042A0004120FEF7DDFA51E000219820FEF7D8FA10
:1042B0004CE000219920FEF7D3FA47E046E045E0C4
:1042C00000218020FEF7CCFA40E000218120FEF79B
:1042D000C7FA3BE000218220FEF7C2FA36E0002157
:1042E0008320FEF7BDFA31E000212020FEF7B8FA66
:1042F0002CE000212120FEF7B3FA27E00021242042
:10430000FEF7AEFA22E000212520FEF7A9FA1DE013
:1043100000212620FEF7A4FA18E000212720FEF74E
:104320009FFA13E000212A20FEF79AFA0EE00021FE
:104330002B20FEF795FA09E000211120FEF790FAF4
:1043400004E003E09A212A48FEF7F7FA31BDF8B5F8
:1043500004000D0064B266110027290049B2200054
:1043600040B200F01CF876B2224850F826000068EF
:104370000006F8D576B21F4850F8260000690700FD
:1043800076B21C4850F82600006830F0800076B203
:10439000184951F826100860380080B2F2BD30B4D8
:1043A00040B2421110F01F0352B2124C54F8224096
:1043B00049B28D0015F00C0555F05005A56052B2BC
:1043C0000C4C54F822400425E56052B2094C54F8D4
:1043D0002240DBB213F01F0555F04005256030BCCC
:1043E000704700003C800440188004403080044046
:1043F000044A00001404FF1FDFF800F0A92B00009E
:10440000DFF800F03B2900005748F02101705648C2
:1044100000780006FBD5544800787121084201D08D
:10442000002000E00120704780B55048006850F43B
:1044300000204E4908604C4800780006FBD54A48E9
:10444000F02101704A4800680A2101FB00F10320B5
:10445000FFF7D2FF01BD10B582B00400A4B24FF443
:10446000805000FB04F000904248092101709DF843
:104470000200414908709DF8010040490870404819
:104480009DF800100170FFF7BFFF002801D1002048
:104490000EE0A4B2002C0AD15FF0FF327FF00103DE
:1044A0004FF48161200080B200F003F800E00120A9
:1044B00016BDF0B583B006000F0014001D00B6B2A3
:1044C0004FF48050BFB200FB06700190BFB20820CD
:1044D00097FBF0F101FB1071002903D0EA21294874
:1044E000FFF78EFFBFB2B7F5805F03DDEC212548F3
:1044F000FFF786FF9DF806001F4908709DF805002C
:104500001E4908701E489DF80410017000949DF823
:1045100003001D4908709DF802001C4908709DF8B1
:1045200001001B4908701B489DF8001001701148DC
:104530000721017000959DF80300174908709DF848
:104540000200164908709DF80100154908701548C9
:104550009DF800100170FFF757FF002801D10020DF
:1045600000E00120FEBD00000000024004F0014018
:10457000D00EFF1F07000240060002400500024067
:1045800004000240484A00000B0002400A000240BA
:1045900009000240080002400F0002400E000240E5
:1045A0000D0002400C000240F0B4114E3668340099
:1045B0000F4E366856F47F060D4F3E600E0616F01D
:1045C000706656EA0076170517F470073E431F041D
:1045D00017F470273E43074F3E6000263500EDB2CA
:1045E0009D4201D26D1CFAE7014E3460F0BC704769
:1045F00000F001404480044010B440B241095E4ADA
:10460000012310F01F04A34042F8213010BC704772
:1046100010B588B000F0EFF800F0CAF800F0D6F856
:10462000564800684FF4FA6101FB00F10320FEF7E1
:10463000BBFA0120FEF753FF504800684FF4FA71AF
:1046400001FB00F10020FEF779FA0FF2B1015420CE
:1046500000F0EFF84420FFF7CFFF00244848FEF7B2
:104660005BFAFEF7DDFF002803D14648FEF754FA57
:10467000F7E70FF2DD016B2000F0DBF85B20FFF7BE
:10468000BBFF4148FEF748FA404800210160FFF7B0
:10469000AFFBFFF704FD3E48B0F9002035A100A8AC
:1046A00000F0DEF8202100A8FFF7E5F8012818D176
:1046B000FFF70CF90028FBD0FFF708F9022808D112
:1046C00021003448FEF728FA641C334800210160B9
:1046D0000BE021003148FEF71FFA2F48012101604D
:1046E00003E021002D48FEF717FA24480068322124
:1046F00001FB00F10320FEF757FAC8E780B501205F
:10470000FEF770FF2248B0F90000002805D52048C8
:10471000B0F9000040421E4908801D48B0F9000071
:10472000002806D41A48B0F900101D48FEF7F4F925
:1047300006E01748B0F9000041421A48FEF7ECF9CC
:104740001948006850F001001749086001BD0000D9
:1047500038B516480068050014485FF0FF31016065
:104760001B20040035FA04F0C00701D5FFF7C0F89C
:1047700031BD00002564000000E100E0D00EFF1F05
:104780009C4C0000CC4C0000704D00005408FE43CF
:104790001004FF1F1C4E00005008FE432C4E00006A
:1047A0003C4E0000484E00000C710340A0D0044075
:1047B00080B50820FFF7C4FC0920FFF7C1FC0C20DE
:1047C000FFF7BEFC0D20FFF7BBFC01BD80B55023F9
:1047D00042F2107203210020FEF72AFD1E234FF43F
:1047E000967203210320FEF723FD502203210320AC
:1047F000FEF7EAFD01BD80B5012201213420FEF75C
:10480000ADFB012201213520FEF7A8FB01BD000010
:1048100010B504004FF4007094FBF0F101FB10415F
:10482000002903D01E210B48FEF787F80A480460D0
:1048300010BD38B504000D000748006807498842DC
:1048400003D030210348FEF778F864B2034840F8FB
:10485000245031BDE04B000008ED00E00000FF1FD8
:104860000CB41CB5044604A801900A46009401ABA0
:1048700000A9074878441830FBF7CEFD00990022C4
:104880000A7000285CBF0098001B16BC5DF80CFB8A
:10489000B3C7FFFF80B500F095F800F02AF800F0EC
:1048A0000AF8FEF76CF8012201210420FEF756FBFE
:1048B000FFF7AEFEFEE780B50420FFF732FA33497A
:1048C0000860324800684FF47A7148433049086004
:1048D0002F4800682F490968C1F30361491CB0FBE8
:1048E000F1F02D4908605FF4E1310320FEF7BCF9D7
:1048F00001BD2DE9F8432948294988420DD00020FF
:104900008046B8F5826F08D22448254951F828100E
:1049100040F8281018F10108F3E72048FFF778FF66
:10492000204807002048060020480400A01B8046BD
:104930004046B0F10108002804D030783870761C69
:104940007F1CF5E71A4881461A480500B5EB0900B7
:1049500080464046B0F10108002805D0002089F8C3
:10496000000019F10109F4E713481449144A531AD5
:1049700098464346B3F10108002B04D00B7803702E
:10498000491C401CF5E7BDE8F1830000CC0EFF1F79
:10499000C80EFF1F44800440D00EFF1F0000FF1F01
:1049A000000000001004FF1FC0190000E8210000F3
:1049B000380EFF1F3119FF1F380CFF1FF84300008E
:1049C000F845000080B500F008F80C4800884FF664
:1049D000FE7108400949088001BDEFF3118072B6ED
:1049E00007494CF220520A8005494DF628120A80E8
:1049F000C0B2002800D162B6704700000020054018
:104A00000E200540443A5CB7C9CBBCBFA8B6FB41F9
:104A10004C4C5CC9BDCDE24B3630B2CEBFBCB4FA13
:104A2000C2EB56352E325CB5DACEE5D5C25C4144D8
:104A3000435C436869705C7372635C4D4B36305FF6
:104A40006164632E63000000443A5CB7C9CBBCBF0D
:104A5000A8B6FB414C4C5CC9BDCDE24B3630B2CE62
:104A6000BFBCB4FAC2EB56352E325CB5DACEE5D512
:104A7000C25C4144435C436869705C7372635C4D23
:104A80004B36305F666C6173682E6300443A5CB7E6
:104A9000C9CBBCBFA8B6FB414C4C5CC9BDCDE24BF9
:104AA0003630B2CEBFBCB4FAC2EB56352E325CB54E
:104AB000DACEE5D5C25C4144435C436869705C73FF
:104AC00072635C4D4B36305F66746D2E6300000080
:104AD000443A5CB7C9CBBCBFA8B6FB414C4C5CC9DF
:104AE000BDCDE24B3630B2CEBFBCB4FAC2EB5635C8
:104AF0002E325CB5DACEE5D5C25C4144435C4368F6
:104B000069705C7372635C4D4B36305F6770696FC0
:104B10002E630000443A5CB7C9CBBCBFA8B6FB41CA
:104B20004C4C5CC9BDCDE24B3630B2CEBFBCB4FA02
:104B3000C2EB56352E325CB5DACEE5D5C25C4144C7
:104B4000435C436869705C7372635C4D4B36305FE5
:104B50005049542E63000000443A5CB7C9CBBCBF37
:104B6000A8B6FB414C4C5CC9BDCDE24B3630B2CE51
:104B7000BFBCB4FAC2EB56352E325CB5DACEE5D501
:104B8000C25C4144435C436869705C7372635C4D12
:104B90004B36305F7370692E63000000443A5CB797
:104BA000C9CBBCBFA8B6FB414C4C5CC9BDCDE24BE8
:104BB0003630B2CEBFBCB4FAC2EB56352E325CB53D
:104BC000DACEE5D5C25C4144435C436869705C73EE
:104BD00072635C4D4B36305F756172742E630000FA
:104BE000443A5CB7C9CBBCBFA8B6FB414C4C5CC9CE
:104BF000BDCDE24B3630B2CEBFBCB4FAC2EB5635B7
:104C00002E325CB5DACEE5D5C25C4144435C4368E4
:104C100069705C7372635C6D6973632E630000007E
:104C20000200000004000000060000000800000070
:104C30001000000020000000400000008000000084
:104C40000001000000020000000400000008000055
:104C50000010000000200000004000000080000064
:104C60000A2A2A2A2A64656661756C745F69737200
:104C700020656E7465726564206F6E20766563745E
:104C80006F722025642A2A2A2A2A0A0A25732049B3
:104C90006E74657272757074000000000A0A0A2A48
:104CA0002A2A2A2A2A2A2A2A2A2ACEDECFDFC4A39F
:104CB000BFE94E524632344C30312BB2E2CAD42ACC
:104CC0002A2A2A2A2A2A2A2A2A2A2A000A20204E7E
:104CD0005246D3EB4D4355C1ACBDD3CAA7B0DCA3FC
:104CE000ACC7EBD6D8D0C2BCECB2E9BDD3CFDFA104
:104CF000A30A000010B5074979441831064C7C44DA
:104D0000163404E00A68081D511888470146A1427C
:104D1000F8D110BD2C00000038000000417373650D
:104D20007274696F6E206661696C656420696E20BB
:104D30002573206174206C696E652025640A00006B
:104D4000CBC2FFFFFC0A0000380EFF1F000000006E
:104D50000ABDF8D0D0BDE2CBF8B2D9D7F7A3ACC723
:104D6000EBD6D8D0C2CBA2C8EBB9CCBCFE000000B9
:104D70000A2020202020204E5246D3EB4D4355C11F
:104D8000ACBDD3B3C9B9A6A3A10A00004EF68851A1
:104D9000CEF20001086840F4700008604FF0007027
:104DA000E1EE100A7047000000F00BF8002801D077
:104DB000FFF7A0FF0020C046C046FFF729FC00F027
:104DC00002F80120704700F001B80000074638469D
:104DD00000F002F8FBE7000001491820ABBEFBE73A
:104DE0002600020038B504460D46284600F006F8B5
:104DF000A84218BF0024204632BD00000149FDF73B
:104E0000B4BD00BFF80BFF1F0ABDF8C8EBCBC0D183
:104E1000ADBBB7B5C8B4FDA3A10000000AB7A2CBD3
:104E2000CDB3C9B9A63A2564000000000AB7A2CBE9
:104E3000CDCAA7B0DC3A2564000000000AD5FDD732
:104E4000AAA3BA25640000000AB7B4D7AAA3BA255A
:104E500064000000C046C046FFF798FFFFF7A4FFBC
:104E6000C2C2C2C2C2000000020305070000000067
:104E70000000000000000000000000000000000032
:104E80000000000000000000FFFFFFFFFFFFFFFF2A
:104E90000000000000000000000000000000000012
:104EA0000000000000000000000000000000000002
:104EB00000000000FFFFFFFFFFFF000000000000F8
:104EC00000000000000000000000000000000000E2
:104ED00000000000000000000000000000000000D2
:104EE00000000000000000000000000000000000C2
:044EF00000000000BE
:0400000500004E5554
:00000001FF
